:020000040000FA
:10000000CBC0EFC0EEC0EDC0ECC0EBC09CC4E9C0FB
:10001000E8C0F8C3E6C065C43FC4E3C0E2C0E1C0C5
:10002000E0C0DFC0DEC008000000BE922449123EDE
:10003000ABAAAA2ABECDCCCC4C3E00000080BEAB01
:10004000AAAAAA3E00000000BF000000803F0000F6
:10005000000000084178D3BB4387D1133D190E3C03
:10006000C3BD4282AD2B3E68EC8276BED98FE1A93A
:100070003E4C80EFFFBE01C4FF7F3F000000000048
:10008000454E54455220504153533A002A430054A0
:10009000656D703A20006C69676874206C657665E0
:1000A0006C3A0050617373776F726420696E636F8E
:1000B00072726563742E2054727920616761696E73
:1000C0002E0050617373776F726420636F72726574
:1000D00063742E20446F6F72206F70656E65642E9E
:1000E000003435343500456E7465726564205061A6
:1000F0007373776F72643A20004B65792050726594
:10010000737365643A2000454E5445522050415364
:10011000533A00446F6F7220697320636C6F73658C
:10012000642E00446F6F72206973206F70656E6576
:10013000642E000000000037003400310000000091
:100140000038003500320000000000360033003077
:100150000004040404040404040202020202020370
:10016000030303030302020301020408102040807A
:100170000102040810200102040810204080400001
:10018000000000000000000004050700000000005F
:10019000000000000000510511241FBECFE5D4E08F
:1001A000DEBFCDBF10E0A0E6B0E0EAE1F7E102C0BB
:1001B00005900D92A637B107D9F721E0A6E7B0E088
:1001C00001C01D92AD34B207E1F710E0CCECD0E0F5
:1001D00003C02197FE0199DACB3CD107D1F7BCD4FB
:1001E0009ACA0ECF8F929F92AF92BF92FF920F93B7
:1001F0001F93CF93DF93F0904A012BE02F1508F463
:1002000048C020914C0108E512E0021B110927FDAE
:100210001395000F111F000F111F20914B01C8E80B
:10022000D0E0C21BD10927FDD395CC0FDD1FCC0F29
:10023000DD1F4E010D2E000CAA08BB089801012EEF
:10024000000C440B550B281939094A095B09DC01DC
:100250008BD724EB30E040E050E060D7820E931E55
:10026000A41EB51E8C169D062CF0E8018016910682
:100270000CF4E4012FB7F8948F2D90E02297FC0145
:10028000EE0FFF1FE80FF91FEB5DFE4FD283C18316
:100290002FBFDF91CF911F910F91FF90BF90AF9033
:1002A0009F908F900895853041F0873049F08430D9
:1002B00051F48FB58F778FBD08958FB58F7DFBCFAC
:1002C00085B58F7D85BD0895CF93DF93282F30E0CE
:1002D000F901E158FE4F8491F901E859FE4FD4919C
:1002E000F901EF5AFE4FC491CC2399F08111DBDF65
:1002F000EC2FF0E0EE0FFF1FE95BFE4FA591B491EC
:10030000EC91ED2381E090E009F480E0DF91CF9162
:10031000089580E090E0FACF1F93CF93DF93282FCA
:1003200030E0F901E158FE4F8491F901E859FE4FA0
:10033000D491F901EF5AFE4FC491CC23A1F0162FAE
:100340008111B1DFEC2FF0E0EE0FFF1FE35CFE4FF9
:10035000A591B4918FB7F894EC91111108C0D09584
:10036000DE23DC938FBFDF91CF911F910895DE2BA9
:10037000F8CFCF93DF9390E0FC01E859FE4F249132
:100380008F5A9E4FFC0184918823C9F090E0880F1A
:10039000991FFC01ED5CFE4FA591B491FC01E35C5B
:1003A000FE4FC591D49161110DC09FB7F8948C9107
:1003B000209582238C938881282328839FBFDF91F7
:1003C000CF910895623051F49FB7F8943C91822FF9
:1003D000809583238C93E8812E2BEFCF8FB7F894F1
:1003E000EC912E2B2C938FBFEACF8E50806487B96F
:1003F000369A3699FECF84B195B108953FB7F894F7
:100400008091840090918500A0918600B091870032
:1004100022B708B600FE05C02F3F19F00196A11DB6
:10042000B11D3FBFBA2FA92F982F8827BC01CD013E
:10043000620F711D811D911D43E0660F771F881F9C
:10044000991F4A95D1F708958F929F92AF92BF92CC
:10045000CF92DF92EF92FF924B015C01CFDF6B01F5
:100460007C01CCDF6C197D098E099F09683E7340C1
:1004700081059105B0F321E0821A9108A108B10825
:1004800088EEC80E83E0D81EE11CF11C8114910493
:10049000A104B10431F7FF90EF90DF90CF90BF90AF
:1004A000AF909F908F900895AF92BF92CF92DF92BE
:1004B000EF92FF920F931F93CF93DF936C017B0119
:1004C0008B01040F151FEB015E01AE18BF08C017AA
:1004D000D10759F06991D601ED91FC910190F0811D
:1004E000E02DC6010995892B79F7C501DF91CF91E0
:1004F0001F910F91FF90EF90DF90CF90BF90AF9042
:100500000895FC01538D448D252F30E0842F90E019
:10051000821B930B541710F0CF96089501970895FE
:10052000FC01918D828D981761F0A28DAE0FBF2FC7
:10053000B11D5D968C91928D9F5F9F73928F90E01D
:1005400008958FEF9FEF0895FC01918D828D98178C
:1005500031F0828DE80FF11D858D90E008958FEFC9
:100560009FEF0895FC01918D228D892F90E0805C92
:100570009F4F821B91098F739927089588E890E017
:10058000F1DF21E0892B09F420E0822F089580E03B
:1005900090E0892B19F0F2DF811132CD0895FC0132
:1005A000A48DA80FB92FB11DA35ABF4F2C91848DD4
:1005B00090E001968F739927848FA689B7892C9331
:1005C000A089B1898C9182748C93938D848D9813BA
:1005D00006C00288F389E02D80818F7D8083089595
:1005E000EF92FF920F931F93CF93DF93EC0181E083
:1005F000888F9B8D8C8D981319C0E889F98980812B
:1006000085FF14C09FB7F894EE89FF896083E8895D
:10061000F9898081827480839FBF81E090E0DF91BF
:10062000CF911F910F91FF90EF900895F62E0B8DB3
:1006300010E00F5F1F4F0F731127E02E8C8D8E116E
:100640000BC00FB607FCFACFE889F989808185FFD6
:10065000F5CFCE01A4DFF2CFEB8DEC0FFD2FF11D16
:10066000E35AFF4FF0829FB7F8940B8FEA89FB891A
:1006700080818062D0CF0F931F93CF93DF938C0143
:10068000D0E0C0E0F801EC0FFD1F6491662339F063
:1006900088E890E0A5DF892B11F02196F3CFCE01F9
:1006A000DF91CF911F910F910895CF93DF93EC01CC
:1006B000888D8823B1F0AA89BB89E889F9898C9152
:1006C00085FD03C0808186FD0CC00FB607FCF7CF07
:1006D0008C9185FFF2CF808185FFEDCFCE015FDF6A
:1006E000EACFDF91CF910895FC0101900020E9F756
:1006F0003197AF01481B590BBC0188E890E0D4CE7C
:10070000CF93DF93B8DFEC0182E790E0EDDF8C0F51
:100710009D1FDF91CF9108958F929F92AF92BF92CC
:100720000F931F93CF93DF93CDB7DEB7A1970FB68B
:10073000F894DEBF0FBECDBF19A2423008F44AE0E4
:100740008E010F5D1F4F842E912CB12CA12CA50181
:10075000940110D5E62FB901CA01EA30ECF4E05D4E
:10076000D801EE938D01232B242B252B81F790E0CC
:1007700080E0109711F0CD01B7DFA1960FB6F89485
:10078000DEBF0FBECDBFDF91CF911F910F91BF9004
:10079000AF909F908F900895E95CE2CFCF92DF9267
:1007A000EF92FF92CF93DF936B017C016DE288E8BB
:1007B00090E016DFEC0166277727CB016C197D09E5
:1007C0008E099F094AE0A8DF8C0F9D1FDF91CF9112
:1007D000FF90EF90DF90CF900895CF93DF93BC010F
:1007E000990F880B990B97FF0AC0D8DFEC0182E7BD
:1007F00090E07ADF8C0F9D1FDF91CF9108954AE042
:100800008BDFF4CF1F920F920FB60F9211242F930C
:100810003F938F939F93AF93BF938091800090916C
:100820008100A0918200B091830030917F0026E08A
:10083000230F2D3768F129E8230F0396A11DB11D61
:1008400020937F008093800090938100A09382008A
:10085000B09383008091840090918500A0918600E0
:10086000B09187000196A11DB11D809384009093E3
:100870008500A0938600B0938700BF91AF919F91B0
:100880008F913F912F910F900FBE0F901F90189551
:100890000296A11DB11DD4CF1F920F920FB60F92D9
:1008A00011242F933F934F935F936F937F938F9375
:1008B0009F93AF93BF93EF93FF9388E890E06FDE31
:1008C000FF91EF91BF91AF919F918F917F916F9128
:1008D0005F914F913F912F910F900FBE0F901F90FE
:1008E00018951F920F920FB60F9211242F938F938A
:1008F0009F93EF93FF93E0919800F091990080818E
:10090000E0919E00F0919F0082FD1BC0908180913C
:10091000A1008F5F8F732091A200821741F0E091B8
:10092000A100F0E0E857FF4F958F8093A100FF9161
:10093000EF919F918F912F910F900FBE0F901F906D
:1009400018958081F4CF1F920F920FB60F92112449
:100950002F933F934F935F936F937F938F939F93C7
:10096000AF93BF93CF93DF93EF93FF938091760084
:10097000C0914901D0E087FF1EC01DBC1CBC809106
:1009800076008F5F8093760080917600082E000CB1
:10099000990B8C179D0724F4809176008C309CF184
:1009A0008CB59DB5049680329E4408F472C08CB517
:1009B0009DB5049670C080917600082E000C990BAE
:1009C0008C179D07E4F6E09176008E2FEE0F990BC1
:1009D000FC01EE0FFF1FE80FF91FEB5DFE4F80815A
:1009E00086FFCDCFE09176008E2FEE0F990BFC01A4
:1009F000EE0FFF1FE80FF91FEB5DFE4F808160E0F7
:100A00008F738ADCBCCF2CB53DB5E09176008E2F7C
:100A1000EE0F990BFC01EE0FFF1FE80FF91FEB5DC6
:100A2000FE4F81819281820F931F9BBD8ABDE09111
:100A300076008E2FEE0F990BFC01EE0FFF1FE80FD3
:100A4000F91FEB5DFE4F808186FF10C0E0917600BC
:100A50008E2FEE0F990BFC01EE0FFF1FE80FF91F11
:100A6000EB5DFE4F808161E08F7356DCFF91EF916B
:100A7000DF91CF91BF91AF919F918F917F916F91B6
:100A80005F914F913F912F910F900FBE0F901F904C
:100A9000189580E29EE49BBD8ABD8FEF809376001F
:100AA000E5CF10928B0010928A0088EE93E0A0E0D0
:100AB000B0E080938C0090938D00A0938E00B09353
:100AC0008F0084E690E0909389008093880080E412
:100AD00090E0909395008093940029E230E0309369
:100AE0009700209396002BE230E0309399002093FA
:100AF00098002AE230E030939B0020939A00909374
:100B00009D0080939C008CE290E090939F008093E6
:100B10009E001092A1001092A2001092A3001092C9
:100B2000A400809149018C3098F491E0980F909343
:100B3000490180934A0190E0FC01EE0FFF1FE80F8E
:100B4000F91FEB5DFE4F8CED95E092838183089554
:100B50008FEF80934A010895789483B7836083BFB1
:100B600089B7816089BF92E09EBD8EB581608EBDE0
:100B70008FB581608FBD85B5846085BD85B5806486
:100B800085BD86E886B91AB8E0919800F091990081
:100B90009083E0919400F09195001082E09196008E
:100BA000F091970097E690831092A000E0919C004E
:100BB000F0919D008083E0919A00F0919B008081EC
:100BC00088698083E0919A00F0919B0080818F7DFD
:100BD000808360E083E1CDDB60E08EE0CADB61E032
:100BE00089E0C7DB60E087E0C4DB61E086E0C1DB71
:100BF00080914A018C3008F04BC061E08AE0B9DB9B
:100C000080914A01282F30E0F901EE0FFF1FE20F1B
:100C1000F31FEB5DFE4F9081907C9A609083109261
:100C20004B0110924C012CE0622F63D5829FB001E2
:100C3000112430E020E0AB01420F531FFA01EE0F08
:100C4000FF1FE40FF51FEB5DFE4F908196FD12C074
:100C50002F5F3F4F2C30310571F781110BC01FBC46
:100C600082E08EBD1DBC1CBC88B7806188BF89B77F
:100C7000806189BFE0914A018E2F90E0FC01EE0F68
:100C8000FF1FE80FF91FEB5DFE4F808180648083BA
:100C900090E080E0A7DA62E08DE06BDB60E08FE05F
:100CA00068DB61E080E165DB61E081E162DB61E0FE
:100CB00082E15FDB61E088E05CDB61E08BE059DBD7
:100CC00080E890E01DDD85E0D82E0AE811E090E094
:100CD000E92E90E0F92E80917E00882309F448C126
:100CE0008AE590E07FDA68EE73E080E090E0ACDBCC
:100CF00083E291E005DD80917E00882309F4EDC058
:100D0000C5E0D0E0812C912C54018FE06EDBBC015A
:100D1000990F880B990B60D39B01AC01C501B401FD
:100D200058D24B015C016AE070E080E090E08CDB1F
:100D3000219759F720E030E040EA50E4C501B401C2
:100D4000B0D29B01AC0160E070EC8FE794E4A9D2D3
:100D500020E030E040E85FE33BD29B01AC0160E083
:100D600070E48CE196E49DD220E030E44CE156E45E
:100D700098D2EBD320E030E443E555E492D22FE063
:100D80003FEC4BE55BE325D29B01AC0160E070E0FA
:100D900080E89FE386D223E333E948E853E418D29E
:100DA0004B015C0120E030E040EA51E476D287FF5D
:100DB00011C060E088E0B0DA61E08BE0DADA60E090
:100DC0008BE0AADA60E080E1A7DA61E082E1A4DAF0
:100DD00060E03BC020E030E040EA51E4C501B401EE
:100DE000ABD387FDAAC020E030E040EF51E4C5015D
:100DF000B40153D218160CF4A0C061E088E08CDA7C
:100E0000C501B401B6D29B01AC012451310941099D
:100E10005109AFEFB0E09ED12AE030E040E050E071
:100E20007DD1C22E732EC22FD32F61E08BE0A1DAC9
:100E3000209709F05CC060E08BE06EDA60E080E152
:100E40006BDA60E082E168DA61E081E165DA8FE81F
:100E500090E011DCC501B4018CD2072E000C880B88
:100E6000990B97FF82C09ADC8CE890E049DC8EE019
:100E7000BCDAEC0186E990E0FEDBCE01AEDC61E09D
:100E8000C43FD1400CF060E089E046DA8DE01CDA26
:100E9000892B09F030CF10927E0060E088E03CDAC8
:100EA00060E08BE039DA60E080E136DA60E082E130
:100EB00033DA60E081E130DA60E089E02DDA83E165
:100EC00091E01EDC87E091E01BDC90E080E08AD9B5
:100ED00068EB7BE080E090E0B7DAE114F10409F41C
:100EE000FACE4CDB882309F4F6CE8AD8F4CECF3F75
:100EF000D10511F461E0A0CFF8018491853061F053
:100F0000873091F08430A9F48FB580688FBD8C2D27
:100F1000972D9BBD8ABD92CF8FB580628FBD8C2DE2
:100F2000972D99BD88BD8ACF85B5806285BDC3BC2C
:100F300085CFC038D105F4F67ECF20E030E040EF19
:100F400051E4C501B401F8D218160CF080CF61E06D
:100F500088E0E2D961E08BE00CDA61E08BE0DCD97B
:100F600061E080E1D9D960E031CF4AE0D5DB7CCFC8
:100F700083E13BDAEC0131DCC33781E0D8076CF563
:100F8000C535A1E0DA070CF0A3C0CC3BD105ACF429
:100F9000CB3AD1050CF096C0CE34D1054CF4C93310
:100FA000D1050CF0A1C06F9708F43FC0C0E03EC06F
:100FB000CE36D105DCF3C3E239C0CD32B1E0DB0778
:100FC0000CF084C0CE30E1E0DE070CF07DC0C05FE5
:100FD000D109659758F7C7E329C0C13EF1E0DF07A3
:100FE00084F4CD3C81E0D8070CF078C0C93BA1E087
:100FF000DA070CF071C0CB39D1400CF46BC0C5E3FB
:1010000015C0CE30E2E0DE0734F4CF3FD1400CF41F
:1010100067C0C2E30BC0CD3182E0D8070CF462C0D8
:10102000C133D2401CF6C1E401C0CAE266E970E0F7
:1010300080E090E009DACC23B9F0E0917D00E43063
:1010400098F4F0E0E858FF4FC08389EF90E013DB9D
:101050006C2F88E890E0C4DA82E790E045DB80916D
:101060007D008F5F80937D0080917D00843009F04A
:1010700043C010927C0086EE90E0FDDA88E790E0B5
:1010800033DB82E790E030DB61EE70E088E790E0F0
:101090003CD0892B59F581E08093770080917700CF
:1010A000882339F181E080937E0082EC90E028DB98
:1010B000E8E7F0E0DF018D2D1D928A95E9F71092A7
:1010C0007D000BCFC4E4B2CFC8E3B0CFC9E3AECF4D
:1010D000C3E4ACCFC4E3AACFC6E3A8CFC2E4A6CF93
:1010E000C1E3A4CFC3E3A2CFC0E3A0CF10927700A7
:1010F000D5CF83EA90E0DBCF87E0E6D861E0892BAB
:1011000009F460E086E008D9E8CEFB01DC018D91AE
:10111000059080190110D9F3990B0895052E97FBBE
:1011200016F400940FD057FD05D024D007FC02D050
:1011300046F408C050954095309521953F4F4F4F4C
:101140005F4F089590958095709561957F4F8F4F73
:101150009F4F089531D0A59F900DB49F900DA49FEF
:10116000800D911D11240895B7FFF4CFF3DF821B8A
:10117000930B0895A1E21A2EAA1BBB1BFD010DC003
:10118000AA1FBB1FEE1FFF1FA217B307E407F50737
:1011900020F0A21BB30BE40BF50B661F771F881F13
:1011A000991F1A9469F760957095809590959B01A9
:1011B000AC01BD01CF010895A29FB001B39FC00152
:1011C000A39F01D0B29F700D811D1124911D089520
:1011D0005058BB27AA270ED075C166D130F06BD10D
:1011E00020F031F49F3F11F41EF45BC10EF4E09542
:1011F000E7FB51C1E92F77D180F3BA176207730774
:101200008407950718F071F49EF58FC10EF4E095F0
:101210000B2EBA2FA02D0B01B90190010C01CA01B0
:10122000A0011124FF27591B99F0593F50F4503E5B
:1012300068F11A16F040A22F232F342F4427585F4D
:10124000F3CF469537952795A795F0405395C9F765
:101250007EF41F16BA0B620B730B840BBAF091501D
:10126000A1F0FF0FBB1F661F771F881FC2F70EC0BC
:10127000BA0F621F731F841F48F48795779567958F
:10128000B795F7959E3F08F0B3CF9395880F08F078
:101290009927EE0F979587950895D9D008F481E0A6
:1012A00008950CD00FC107D140F0FED030F021F4EA
:1012B0005F3F19F0F0C0511139C1F3C014D198F358
:1012C0009923C9F35523B1F3951B550BBB27AA27C7
:1012D00062177307840738F09F5F5F4F220F331F39
:1012E000441FAA1FA9F333D00E2E3AF0E0E830D005
:1012F00091505040E695001CCAF729D0FE2F27D008
:10130000660F771F881FBB1F261737074807AB07D5
:10131000B0E809F0BB0B802DBF01FF2793585F4F4A
:101320002AF09E3F510568F0B6C000C15F3FECF364
:10133000983EDCF3869577956795B795F7959F5F0F
:10134000C9F7880F911D9695879597F90895E1E063
:10135000660F771F881FBB1F621773078407BA07C2
:1013600020F0621B730B840BBA0BEE1F88F7E0951D
:10137000089504D06894B111D9C00895BCD088F004
:101380009F5790F0B92F9927B751A0F0D1F0660F71
:10139000771F881F991F1AF0BA95C9F712C0B1308C
:1013A00081F0C3D0B1E00895C0C0672F782F88279F
:1013B000B85F39F0B93FCCF3869577956795B395CB
:1013C000D9F73EF490958095709561957F4F8F4F3A
:1013D0009F4F0895E89409C097FB3EF4909580953F
:1013E000709561957F4F8F4F9F4F9923A9F0F92FEB
:1013F00096E9BB279395F695879577956795B79569
:10140000F111F8CFFAF4BB0F11F460FF1BC06F5F4E
:101410007F4F8F4F9F4F16C0882311F096E911C060
:10142000772321F09EE8872F762F05C0662371F081
:1014300096E8862F70E060E02AF09A95660F771F95
:10144000881FDAF7880F9695879597F90895990F71
:101450000008550FAA0BE0E8FEEF16161706E8077E
:10146000F907C0F012161306E407F50798F0621B9F
:10147000730B840B950B39F40A2661F0232B242B74
:10148000252B21F408950A2609F4A140A6958FEF93
:10149000811D811D089597F99F6780E870E060E0E5
:1014A00008959FEF80EC089500240A9416161706FD
:1014B00018060906089500240A9412161306140645
:1014C00005060895092E0394000C11F4882352F0A8
:1014D000BB0F40F4BF2B11F460FF04C06F5F7F4F60
:1014E0008F4F9F4F089557FD9058440F551F59F047
:1014F0005F3F71F04795880F97FB991F61F09F3F01
:1015000079F087950895121613061406551FF2CF29
:101510004695F1DF08C0161617061806991FF1CF79
:1015200086957105610508940895E894BB276627A0
:101530007727CB0197F908958ADF08F48FEF089594
:101540000EF0A4C0AECF6894A6CFD5DFC8F3992320
:10155000D1F3C6F3DF93CF931F930F93FF92C92F5D
:10156000DD2788232AF02197660F771F881FDAF777
:1015700020E030E040E85FEB9FE3883920F0803ED8
:1015800030F021968F7725DEE6E2F0E003C021DE21
:10159000E3E5F0E089D08B01BE01EC01FB2E6F5733
:1015A00071097595771F880B990B16DF28E132E7D3
:1015B00041E35FE314D0AF2D9801AE01FF900F918E
:1015C0001F91CF91DF9116DE7DCF6EDF28F073DFA4
:1015D00018F0952309F05FCF64CF1124A7CF83DFE4
:1015E000A0F3959FD1F3950F50E0551F629FF00136
:1015F000729FBB27F00DB11D639FAA27F00DB11D8F
:10160000AA1F649F6627B00DA11D661F829F222717
:10161000B00DA11D621F739FB00DA11D621F839F9E
:10162000A00D611D221F749F3327A00D611D231F74
:10163000849F600D211D822F762F6A2F11249F57C2
:1016400050408AF0E1F088234AF0EE0FFF1FBB1FE5
:10165000661F771F881F91505040A9F79E3F510584
:1016600070F019CF63CF5F3FECF3983EDCF38695C3
:1016700077956795B795F795E7959F5FC1F7FE2B2F
:10168000880F911D9695879597F908959F3F31F0A2
:10169000915020F4879577956795B795880F911DA0
:1016A0009695879597F90895DF93CF931F930F939E
:1016B000FF92EF92DF927B018C01689405C0DA2ED5
:1016C000EF018DDFFE01E894A591259135914591BB
:1016D0005591AEF3EF018EDDFE019701A801DA947A
:1016E00079F7DF90EF90FF900F911F91CF91DF91ED
:1016F0000895991B79E004C0991F961708F0961B6E
:10170000881F7A95C9F780950895EE0FFF1F059001
:10171000F491E02D0994F894FFCF00000000F0024E
:10172000540281025503B2029002A4020D0A000085
:101E800011248FE594E09EBF8DBF24B614BE80E080
:101E90007AD021FEC7C08EE076D0AFE7BFEF809941
:101EA000FECF9096809BFDCFB9B91197F1F782E0F4
:101EB0008BB988E18AB957D0C82F823559F467D0D9
:101EC000E0E8FEE1E054F109A89583E085D0309781
:101ED000C9F742C08D7F09F551D0D82F182F80E661
:101EE000E82EF12C40D0D7018D937D011150D1F710
:101EF0004ED0C1110EC0A0E6B0E0E199FECFFFBB0D
:101F0000EEBB8D918DBBE29AE19A3196D150A9F743
:101F100023C0A0E6B0E045D01FC0C33041F42ED0AE
:101F2000C82F35D085911BD0C150E1F715C0C13005
:101F300071F424D0C82F2BD0E199FECFFFBBEEBBAC
:101F4000E09A8DB30CD03196C150B1F705C0C135C0
:101F500011F488E018D01BD08DE201D0ACCF5D9B8E
:101F6000FECF8CB90895C59ABD9A8BB187FFFDCF7E
:101F700084FD10C0A8958CB1C5980895F4DFE82FB2
:101F8000F2DFF82FF0CF98E191BD81BD0895EBDF2E
:101F9000803219F088E0F7DFFFCF80EAE0CFFB0165
:101FA000DC0160E46A0F9F01E0388EE1F807C8F4B5
:101FB00083E012D0309629F48FE38D938FEC8C93CD
:101FC000119781E00D901D9007D03296A613FACF9D
:101FD000F90185E001D081E187BFE89507B600FCF3
:061FE000FDCF112408955D
:061FFA000612D0CFE73F04
:00000001FF
