:10000000D4C0F8C0F7C0F6C0F5C0F4C0ECC5F2C06B
:10001000F1C03DC4EFC0AAC484C4ECC0EBC0EAC0C8
:10002000E9C0D6C4E7C008000000BE922449123ED1
:10003000ABAAAA2ABECDCCCC4C3E00000080BEAB01
:10004000AAAAAA3E00000000BF000000803F0000F6
:10005000000000084178D3BB4387D1133D190E3C03
:10006000C3BD4282AD2B3E68EC8276BED98FE1A93A
:100070003E4C80EFFFBE01C4FF7F3F000000000048
:10008000454E54455220504153533A002A430054A0
:10009000656D703A20006C69676874206C657665E0
:1000A0006C3A003738392F3435362A3132332D63E4
:1000B000303D2B50617373776F726420696E636F8C
:1000C00072726563742E2054727920616761696E63
:1000D0002E0050617373776F726420636F72726564
:1000E00063742E20446F6F72206F70656E65642E8E
:1000F000003435343500456E746572656420506196
:100100007373776F72643A20004B65792050726583
:10011000737365643A2000454E5445522050415354
:10012000533A00446F6F7220697320636C6F73657C
:10013000642E00446F6F72206973206F70656E6566
:10014000642E000000000037003400310000000081
:10015000000000000000040507000000000000008F
:1001600000000000000000003600330030000102F3
:100170000408102040800102040810200102040835
:10018000102040804000000000380035003200049C
:10019000040404040404040202020202020303032E
:1001A000030303020203A106870A11241FBECFE541
:1001B000D4E0DEBFCDBF10E0A0E6B0E0E8E9FDE1AD
:1001C00002C005900D92A438B107D9F721E0A4E848
:1001D000B0E001C01D92AB3EB207E1F710E0C4ED04
:1001E000D0E003C02197FE01A0DCC33DD107D1F7C9
:1001F000B5D6C6CD05CF8F929F92AF92BF92FF9298
:100200000F931F93CF93DF93F090E4012BE02F1512
:1002100008F448C02091E60108E512E0021B11092C
:1002200027FD1395000F111F000F111F2091E501ED
:10023000C8E8D0E0C21BD10927FDD395CC0FDD1F44
:10024000CC0FDD1F4E010D2E000CAA08BB08980133
:10025000012E000C440B550B281939094A095B097A
:10026000DC01A9DA24EB30E040E050E07EDA820ED7
:10027000931EA41EB51E8C169D062CF0E801801658
:1002800091060CF4E4012FB7F8948F2D90E022979B
:10029000FC01EE0FFF1FE80FF91FE154FE4FD28360
:1002A000C1832FBFDF91CF911F910F91FF90BF901E
:1002B000AF909F908F900895853041F0873049F03E
:1002C000843051F48FB58F778FBD08958FB58F7DB2
:1002D000FBCF85B58F7D85BD0895CF93DF93282F04
:1002E00030E0F901E35BFE4F8491F901E259FE4FE2
:1002F000D491F901E157FE4FC491CC2399F08111BB
:10030000DBDFEC2FF0E0EE0FFF1FEC59FE4FA59165
:10031000B491EC91ED2381E090E009F480E0DF916D
:10032000CF91089580E090E0FACF1F93CF93DF93B1
:10033000282F30E0F901E35BFE4F8491F901E25987
:10034000FE4FD491F901E157FE4FC491CC23A1F0A7
:10035000162F8111B1DFEC2FF0E0EE0FFF1FEB57EE
:10036000FE4FA591B4918FB7F894EC91111108C08C
:10037000D095DE23DC938FBFDF91CF911F9108953D
:10038000DE2BF8CFCF93DF9390E0FC01E259FE4FD4
:10039000249181579E4FFC0184918823C9F090E0FD
:1003A000880F991FFC01ED5BFE4FA591B491FC01F4
:1003B000EB57FE4FC591D49161110DC09FB7F894D2
:1003C0008C91209582238C938881282328839FBF3A
:1003D000DF91CF910895623051F49FB7F8943C912A
:1003E000822F809583238C93E8812E2BEFCF8FB7BC
:1003F000F894EC912E2B2C938FBFEACF3FB7F89453
:100400008091E3009091E400A091E500B091E600B6
:1004100022B708B600FE05C02F3F19F00196A11DB6
:10042000B11D3FBFBA2FA92F982F8827BC01CD013E
:10043000620F711D811D911D43E0660F771F881F9C
:10044000991F4A95D1F708958F929F92AF92BF92CC
:10045000CF92DF92EF92FF924B015C01CFDF6B01F5
:100460007C01CCDF6C197D098E099F09683E7340C1
:1004700081059105B0F321E0821A9108A108B10825
:1004800088EEC80E83E0D81EE11CF11C8114910493
:10049000A104B10431F7FF90EF90DF90CF90BF90AF
:1004A000AF909F908F900895AF92BF92CF92DF92BE
:1004B000EF92FF920F931F93CF93DF936C017B0119
:1004C0008B01040F151FEB015E01AE18BF08C017AA
:1004D000D10759F06991D601ED91FC910190F0811D
:1004E000E02DC6010995892B79F7C501DF91CF91E0
:1004F0001F910F91FF90EF90DF90CF90BF90AF9042
:100500000895FC01538D448D252F30E0842F90E019
:10051000821B930B541710F0CF96089501970895FE
:10052000FC01918D828D981761F0A28DAE0FBF2FC7
:10053000B11D5D968C91928D9F5F9F73928F90E01D
:1005400008958FEF9FEF0895FC01918D828D98178C
:1005500031F0828DE80FF11D858D90E008958FEFC9
:100560009FEF0895FC01918D228D892F90E0805C92
:100570009F4F821B91098F739927089587EE90E012
:10058000F1DF21E0892B09F420E0822F089580E03B
:1005900090E0892B19F0F2DF811132CD0895FC0132
:1005A000A48DA80FB92FB11DA35ABF4F2C91848DD4
:1005B00090E001968F739927848FA689B7892C9331
:1005C000A089B1898C9182748C93938D848D9813BA
:1005D00006C00288F389E02D80818F7D8083089595
:1005E000EF92FF920F931F93CF93DF93EC0181E083
:1005F000888F9B8D8C8D981319C0E889F98980812B
:1006000085FF14C09FB7F894EE89FF896083E8895D
:10061000F9898081827480839FBF81E090E0DF91BF
:10062000CF911F910F91FF90EF900895F62E0B8DB3
:1006300010E00F5F1F4F0F731127E02E8C8D8E116E
:100640000BC00FB607FCFACFE889F989808185FFD6
:10065000F5CFCE01A4DFF2CFEB8DEC0FFD2FF11D16
:10066000E35AFF4FF0829FB7F8940B8FEA89FB891A
:1006700080818062D0CF0F931F93CF93DF938C0143
:10068000D0E0C0E0F801EC0FFD1F6491662339F063
:1006900087EE90E0A5DF892B11F02196F3CFCE01F4
:1006A000DF91CF911F910F910895CF93DF93EC01CC
:1006B000888D8823B1F0AA89BB89E889F9898C9152
:1006C00085FD03C0808186FD0CC00FB607FCF7CF07
:1006D0008C9185FFF2CF808185FFEDCFCE015FDF6A
:1006E000EACFDF91CF91089585ED86BF06B604FC71
:1006F000FDCF1092D00008952091AC00260F332733
:10070000331F21323105ECF42091D000FC0190E040
:1007100080E0243069F082E00895A091AC0021913E
:10072000AC0144575F4FA40FB52FB11D2C93019618
:10073000861798F38091AC00680F6093AC0080E05E
:10074000089581E0089508958FEF9FEF08958FEF4A
:100750009FEF089580918B0090E09195819591098C
:100760000895CF93DF93CB01EA01642FC5DFCE015B
:10077000DF91CF910895CF93DF931F92CDB7DEB76E
:10078000698361E0CE010196B7DF81E090E00F90D0
:10079000DF91CF91089590E080E00895FC010190F1
:1007A0000020E9F73197AF01481B590BBC0187EED8
:1007B00090E07ACECF93DF935EDFEC0180E890E0AB
:1007C000EDDF8C0F9D1FDF91CF9108958F929F9247
:1007D000AF92BF920F931F93CF93DF93CDB7DEB746
:1007E000A1970FB6F894DEBF0FBECDBF19A242305D
:1007F00008F44AE08E010F5D1F4F842E912CB12C1E
:10080000A12CA5019401DDD7E62FB901CA01EA3078
:10081000ECF4E05DD801EE938D01232B242B252BE6
:1008200081F790E080E0109711F0CD01B7DFA1963D
:100830000FB6F894DEBF0FBECDBFDF91CF911F91F1
:100840000F91BF90AF909F908F900895E95CE2CF99
:10085000CF92DF92EF92FF92CF93DF936B017C01F7
:100860006DE287EE90E0BCDEEC0166277727CB01D6
:100870006C197D098E099F094AE0A8DF8C0F9D1F26
:10088000DF91CF91FF90EF90DF90CF9008951F926E
:100890000F920FB60F9211242F933F938F939F9334
:1008A000AF93BF938091DF009091E000A091E100B1
:1008B000B091E2003091DE0026E0230F2D3768F181
:1008C00029E8230F0396A11DB11D2093DE0080931C
:1008D000DF009093E000A093E100B093E2008091EC
:1008E000E3009091E400A091E500B091E60001964C
:1008F000A11DB11D8093E3009093E400A093E50057
:10090000B093E600BF91AF919F918F913F912F914E
:100910000F900FBE0F901F9018950296A11DB11D4C
:10092000D4CF1F920F920FB60F9211242F933F93A3
:100930004F935F936F937F938F939F93AF93BF93E7
:10094000EF93FF9387EE90E02ADEFF91EF91BF9146
:10095000AF919F918F917F916F915F914F913F9157
:100960002F910F900FBE0F901F9018951F920F920E
:100970000FB60F9211242F938F939F93EF93FF93B2
:10098000E091F700F091F8008081E091FD00F09196
:10099000FE0082FD1BC09081809100018F5F8F73EC
:1009A00020910101821741F0E0910001F0E0E9514E
:1009B000FF4F958F80930001FF91EF919F918F9151
:1009C0002F910F900FBE0F901F9018958081F4CF3C
:1009D0001F920F920FB60F9211242F933F934F93B4
:1009E0005F936F937F938F939F93AF93BF93EF9397
:1009F000FF9381B1887F803609F449C0E8F58832D9
:100A000009F4A0C018F5803109F496C0B8F4882321
:100A100009F4E6C0883009F48FC0FF91EF91BF91CF
:100A2000AF919F918F917F916F915F914F913F9186
:100A30002F910F900FBE0F901F901895883109F4D9
:100A400081C0803251F78093CF0014C0803409F404
:100A500091C040F48033B9F38833F9F68093CF0026
:100A600085ECA1C0803509F47CC0883509F48AC0C2
:100A7000883499F639DED1CF883909F481C030F550
:100A8000883729F050F4883611F0803731F683E04A
:100A90008093D0001092CE0052C0883809F470C004
:100AA000803919F0803809F0B8CF8091CE008032BB
:100AB00008F066C0E091CE0081E08E0F8093CE00FA
:100AC00083B1F0E0E255FF4F808339C0803B39F0BD
:100AD000D0F4803A09F46BC0883A09F09ECF84E0E4
:100AE0008093D0001092AD001092AC00F0E0E0E0F6
:100AF00009958091AC0081110FC081E08093AC001A
:100B000010928C0009C0803C09F4AACF883C09F4FB
:100B1000A7CF883B09F081CFE091AD0081E08E0F37
:100B20008093AD00F0E0E457FF4F808183B990914E
:100B3000AD008091AC0022C08091D50083B985ECD6
:100B400086BF6BCF9091D4008091D300981718F591
:100B5000E091D40081E08E0F8093D400F0E080819A
:100B6000EDCFE091D40081E08E0F8093D40083B16B
:100B7000F0E080839091D4008091D3009817F8F230
:100B800085E8DECFE091D40081E08E0F8093D40021
:100B900083B1F0E080838091D20081116BCF81E03E
:100BA0008093D10084EA86BF1092D00036CF85ECC6
:100BB00086BF1092D0008091CE00803230F4E09158
:100BC000CE00F0E0E255FF4F10826091CE0070E061
:100BD0008EEA90E0F0E0E0E009951092CE001DCFA3
:100BE0001092CF0047CF1F920F920FB60F92112491
:100BF0002F933F934F935F936F937F938F939F9325
:100C0000AF93BF93CF93DF93EF93FF9380918A00CD
:100C1000C091E301D0E087FF1EC01DBC1CBC8091C9
:100C20008A008F5F80938A0080918A00082E000CD2
:100C3000990B8C179D0724F480918A008C309CF1CD
:100C40008CB59DB5049680329E4408F472C08CB574
:100C50009DB5049670C080918A00082E000C990BF7
:100C60008C179D07E4F6E0918A008E2FEE0F990B0A
:100C7000FC01EE0FFF1FE80FF91FE154FE4F8081CA
:100C800086FFCDCFE0918A008E2FEE0F990BFC01ED
:100C9000EE0FFF1FE80FF91FE154FE4F808160E067
:100CA0008F7343DBBCCF2CB53DB5E0918A008E2F0E
:100CB000EE0F990BFC01EE0FFF1FE80FF91FE15437
:100CC000FE4F81819281820F931F9BBD8ABDE0916F
:100CD0008A008E2FEE0F990BFC01EE0FFF1FE80F1D
:100CE000F91FE154FE4F808186FF10C0E0918A0019
:100CF0008E2FEE0F990BFC01EE0FFF1FE80FF91F6F
:100D0000E154FE4F808161E08F730FDBFF91EF9123
:100D1000DF91CF91BF91AF919F918F917F916F9113
:100D20005F914F913F912F910F900FBE0F901F90A9
:100D3000189580E29EE49BBD8ABD8FEF80938A0068
:100D4000E5CF0F931F93CF93DF931092EA00109299
:100D5000E90088EE93E0A0E0B0E08093EB00909390
:100D6000EC00A093ED00B093EE0082E790E090934A
:100D7000E8008093E70080E490E09093F400809393
:100D8000F30029E230E03093F6002093F5002BE2E7
:100D900030E03093F8002093F7002AE230E03093FF
:100DA000FA002093F9009093FC008093FB008CE202
:100DB00090E09093FE008093FD001092000110924D
:100DC000010110920201109203011092AA011092E7
:100DD000B1011092B8011092B9011092BA011092AB
:100DE000BB0181E08093B7018093B4011092B501FB
:100DF00092E09093B6018093A901C8E6D1E0D09328
:100E0000AE01C093AD0188E691E095D69093B30111
:100E10008093B201009709F494C0FC019E011192E5
:100E200021503040E1F788E790E09093AC01809347
:100E3000AB018DE090E09093B0018093AF01809181
:100E4000AA01882331F061E08DE09CDA60E08DE05A
:100E50006CDACCE9D1E0FE018491E82FF0E0EE0FEE
:100E6000FF1FEB57FE4F859194919093BD018093A6
:100E7000BC010BE711E0F80184918093BE0160E0B2
:100E80008DE080DAF801049100939B01FE01C4918A
:100E9000EC2FF0E0EE0FFF1FEC59FE4F859194917F
:100EA00090939D0180939C011092A6011092A8013D
:100EB0001092A7011092A5011092A4011092A30113
:100EC0001092A2011092A1011092A00110929F0114
:100ED00010929E0110929A01109299011092850130
:100EE0008BE991E090938E0180938D0110928B019C
:100EF00010928C011092840189E08093870181E037
:100F0000809388018093890180938A018091E30115
:100F10008C3000F591E0980F9093E3018093E40109
:100F200090E0FC01EE0FFF1FE80FF91FE154FE4FA8
:100F30008CED95E092838183DF91CF911F910F918A
:100F400008951092AE011092AD011092AC01109272
:100F5000AB016FCF8FEF8093E401EECF789483B72E
:100F6000836083BF89B7816089BF92E09EBD8EB5E3
:100F700081608EBD8FB581608FBD85B5846085BD74
:100F800085B5806485BD86E886B91AB8E091F7001A
:100F9000F091F8009083E091F300F091F40010825A
:100FA000E091F500F091F60097E690831092FF0033
:100FB000E091FB00F091FC008083E091F900F0915A
:100FC000FA00808188698083E091F900F091FA004D
:100FD00080818F7D808362E08CE0D4D962E08DE0F7
:100FE000D1D962E084E1CED962E085E1CBD9DEE6F9
:100FF000ED2ED0E0FD2ECAE6D0E0199161E0812F00
:10100000C1D961E0812F91D964E170E080E090E086
:101010001BDAEC16FD0689F760E08EE0B3D961E0DB
:1010200089E0B0D960E087E0ADD961E086E0AAD977
:101030008091E4018C3008F04BC061E08AE0A2D9D5
:101040008091E401282F30E0F901EE0FFF1FE20F3D
:10105000F31FE154FE4F9081907C9A609083109230
:10106000E5011092E6012CE0622F53D5829FB0017A
:10107000112430E020E0AB01420F531FFA01EE0FC4
:10108000FF1FE40FF51FE154FE4F908196FD12C043
:101090002F5F3F4F2C30310571F781110BC01FBC02
:1010A00082E08EBD1DBC1CBC88B7806188BF89B73B
:1010B000806189BFE091E4018E2F90E0FC01EE0F8A
:1010C000FF1FE80FF91FE154FE4F80818064808389
:1010D00090E080E090D862E083E154D960E08FE056
:1010E00051D961E080E14ED961E081E14BD961E005
:1010F00082E148D961E088E045D961E08BE042D9DE
:1011000080E890E057DB41E4742E58E5252E51E04D
:10111000352E60E4662E70E0A72E70E0B72E35E025
:10112000532E8091DD002AE6E22E20E0F22E10E020
:1011300000E0882309F45BC18AE590E05CD868EEA2
:1011400073E080E090E080D983E391E033DB80912D
:10115000DD00882309F4FDC0C5E0D0E0C12CD12C0E
:10116000760177B8369A3699FECF64B175B1072EFD
:10117000000C880B990BE8D19B01AC01C701B601AB
:101180004FD36B017C016AE070E080E090E05CD9B5
:10119000219739F720E030E040EA50E4C701B6017A
:1011A000A3D39B01AC0160E070EC8FE794E49CD387
:1011B00020E030E040E85FE332D39B01AC0160E027
:1011C00070E48CE196E490D320E030E44CE156E406
:1011D0008BD32CD420E030E443E555E485D32FE0D5
:1011E0003FEC4BE55BE31CD39B01AC0160E070E09E
:1011F00080E89FE379D323E333E948E853E40FD34E
:101200006B017C0120E030E040EA51E497D187FF98
:1012100011C060E088E089D861E08BE0B3D860E07D
:101220008BE083D860E080E180D861E082E17DD806
:1012300060E03BC020E030E040EA51E4C701B60185
:10124000ECD387FDB6C020E030E040EF51E4C701A9
:10125000B60174D118160CF4ACC061E088E065D812
:10126000C701B601A9D39B01AC0124513109410941
:101270005109AFEFB0E095D22AE030E040E050E015
:1012800074D2122F032FC22FD32F61E08BE07AD8B4
:10129000209709F068C060E08BE047D860E080E10B
:1012A00044D860E082E141D861E081E13ED88FE836
:1012B00090E0E1D9C701B6017FD3072E000C880B5F
:1012C000990B97FF8EC0C4DA8CE890E073DA67B8A8
:1012D000369A3699FECFC4B1D5B186E990E0CBD924
:1012E000BE010D2E000C880B990B97FF7DC0B0DA64
:1012F00080E890E053DA61E0C43FD1400CF060E058
:1013000089E013D883E1E9D7892B09F020CF109227
:10131000DD0060E088E009D860E08BE006D860E09E
:1013200080E103D860E082E100D860E081E1FDD790
:1013300060E089E0FAD783E291E03CDA87E191E06E
:1013400039DA90E080E057D768EB7BE080E090E00E
:101350007BD8A114B10409F4E4CE10D9882309F490
:10136000E0CE4ED6DCCECF3FD10511F461E094CF74
:10137000F1018491853061F0873091F08430A9F4D7
:101380008FB580688FBD812F902F9BBD8ABD86CF82
:101390008FB580628FBD812F902F99BD88BD7ECF84
:1013A00085B5806285BD13BD79CFC038D105F4F60F
:1013B00072CF20E030E040EF51E4C701B6012DD3F9
:1013C00018160CF074CF61E088E0AFD761E08BE0D5
:1013D000D9D761E08BE0A9D761E080E1A6D760E0D2
:1013E00025CF4AE0F3D970CF4AE0F0D981CFD701B9
:1013F0004D907D0160E0842D98D796E6892E90E08F
:10140000992ED0E0C0E0F40181914F0166D7892B7D
:1014100009F05EC061E0842D88D762E370E080E06F
:1014200090E012D8FE01EE0FFF1FEE0FFF1FE00F3E
:10143000F11FED55FF4FC49166E970E080E090E048
:1014400003D8CC23B9F0E091DC00E43098F4F0E06C
:10145000E952FF4FC08389E091E00DD96C2F87EEF0
:1014600090E0BED880E890E099D98091DC008F5F51
:101470008093DC008091DC00843009F03FC0109242
:10148000DB0086EF90E0F7D887ED90E087D980E821
:1014900090E084D961EF70E087ED90E046D0892B31
:1014A00039F581E08093D6008091D600882319F128
:1014B00081E08093DD0082ED90E07CD9E7EDF0E003
:1014C000DF01852D1D928A95E9F71092DC0041CF4E
:1014D0002196C430D10509F096CF61E0842D25D73F
:1014E0000F5F1F4F0430110509F081CFC0E0A4CF7A
:1014F0001092D600D9CF83EB90E0DFCF87E0EDD616
:1015000061E0892B09F460E086E00FD722CF80915B
:10151000B2019091B301ABD38091AF019091B00132
:1015200097FD02C060E02EC70895FB01DC018D919C
:10153000059080190110D9F3990B089540D008F453
:1015400081E00895E89409C097FB3EF4909580955A
:10155000709561957F4F8F4F9F4F9923A9F0F92F79
:1015600096E9BB279395F695879577956795B795F7
:10157000F111F8CFFAF4BB0F11F460FF1BC06F5FDD
:101580007F4F8F4F9F4F16C0882311F096E911C0EF
:10159000772321F09EE8872F762F05C0662371F010
:1015A00096E8862F70E060E02AF09A95660F771F24
:1015B000881FDAF7880F9695879597F90895990F00
:1015C0000008550FAA0BE0E8FEEF16161706E8070D
:1015D000F907C0F012161306E407F50798F0621B2E
:1015E000730B840B950B39F40A2661F0232B242B03
:1015F000252B21F408950A2609F4A140A6958FEF22
:10160000811D811D089569D028F06ED018F09523B2
:1016100009F05AC05FC01124A2C07ED0A0F3959FEC
:10162000D1F3950F50E0551F629FF001729FBB27C9
:10163000F00DB11D639FAA27F00DB11DAA1F649F75
:101640006627B00DA11D661F829F2227B00DA11D28
:10165000621F739FB00DA11D621F839FA00D611DAE
:10166000221F749F3327A00D611D231F849F600DCF
:10167000211D822F762F6A2F11249F5750408AF008
:10168000E1F088234AF0EE0FFF1FBB1F661F771F94
:10169000881F91505040A9F79E3F510570F014C02B
:1016A0005EC05F3FECF3983EDCF3869577956795D7
:1016B000B795F795E7959F5FC1F7FE2B880F911DB2
:1016C0009695879597F9089597F99F6780E870E058
:1016D00060E008959FEF80EC089500240A941616A8
:1016E000170618060906089500240A941216130610
:1016F000140605060895092E0394000C11F488239E
:1017000052F0BB0F40F4BF2B11F460FF04C06F5FB9
:101710007F4F8F4F9F4F089557FD9058440F551F8F
:1017200059F05F3F71F04795880F97FB991F61F063
:101730009F3F79F087950895121613061406551FDA
:10174000F2CF4695F1DF08C0161617061806991F46
:10175000F1CF86957105610508940895E894BB273B
:1017600066277727CB0197F90895052E97FB16F486
:1017700000940FD057FD05D024D007FC02D046F4CA
:1017800008C050954095309521953F4F4F4F5F4F82
:10179000089590958095709561957F4F8F4F9F4FDD
:1017A000089531D0A59F900DB49F900DA49F800DFA
:1017B000911D11240895B7FFF4CFF3DF821B930B23
:1017C0000895A1E21A2EAA1BBB1BFD010DC0AA1F82
:1017D000BB1FEE1FFF1FA217B307E407F50720F09A
:1017E000A21BB30BE40BF50B661F771F881F991F15
:1017F0001A9469F760957095809590959B01AC015E
:10180000BD01CF010895A29FB001B39FC001A39F66
:1018100001D0B29F700D811D1124911D0895505863
:10182000BB27AA270ED067CF58DF30F05DDF20F04E
:1018300031F49F3F11F41EF44DCF0EF4E095E7FB19
:1018400043CFE92F69DF80F3BA1762077307840774
:10185000950718F071F49EF581CF0EF4E0950B2EEC
:10186000BA2FA02D0B01B90190010C01CA01A001F2
:101870001124FF27591B99F0593F50F4503E68F14D
:101880001A16F040A22F232F342F4427585FF3CF8E
:10189000469537952795A795F0405395C9F77EF45F
:1018A0001F16BA0B620B730B840BBAF09150A1F0A8
:1018B000FF0FBB1F661F771F881FC2F70EC0BA0F2E
:1018C000621F731F841F48F4879577956795B795B6
:1018D000F7959E3F08F0B3CF9395880F08F09927AE
:1018E000EE0F9795879508950CD005CFFDDE40F05B
:1018F000F4DE30F021F45F3F19F0E6CE51112FCF26
:10190000E9CE0ADF98F39923C9F35523B1F3951B68
:10191000550BBB27AA2762177307840738F09F5F10
:101920005F4F220F331F441FAA1FA9F333D00E2E7F
:101930003AF0E0E830D091505040E695001CCAF7EC
:1019400029D0FE2F27D0660F771F881FBB1F2617B1
:1019500037074807AB07B0E809F0BB0B802DBF0184
:10196000FF2793585F4F2AF09E3F510568F0ACCE99
:10197000F6CE5F3FECF3983EDCF38695779567955E
:10198000B795F7959F5FC9F7880F911D9695879535
:1019900097F90895E1E0660F771F881FBB1F621754
:1019A00073078407BA0720F0621B730B840BBA0B12
:1019B000EE1F88F7E095089504D06894B111CFCE5A
:1019C0000895B2DE88F09F5790F0B92F9927B7514C
:1019D000A0F0D1F0660F771F881F991F1AF0BA95F3
:1019E000C9F712C0B13081F0B9DEB1E00895B6CECA
:1019F000672F782F8827B85F39F0B93FCCF38695E9
:101A000077956795B395D9F73EF490958095709545
:101A100061957F4F8F4F9F4F0895D1DD08F48FEF71
:101A200008950EF043C056CE68944ECE7DDEC8F3C6
:101A30009923D1F3C6F3DF93CF931F930F93FF92B4
:101A4000C92FDD2788232AF02197660F771F881F6B
:101A5000DAF720E030E040E85FEB9FE3883920F0E0
:101A6000803E30F021968F77DBDEE6E2F0E003C0C7
:101A7000D7DEE3E5F0E028D08B01BE01EC01FB2EC0
:101A80006F5771097595771F880B990B5DDD28E1FC
:101A900032E741E35FE3C1DDAF2D9801AE01FF9076
:101AA0000F911F91CF91DF91CCDE25CE9F3F31F07A
:101AB000915020F4879577956795B795880F911D7C
:101AC0009695879597F90895DF93CF931F930F937A
:101AD000FF92EF92DF927B018C01689405C0DA2EB1
:101AE000EF019BDDFE01E894A5912591359145918B
:101AF0005591AEF3EF01A5DEFE019701A801DA943E
:101B000079F7DF90EF90FF900F911F91CF91DF91C8
:101B10000895991B79E004C0991F961708F0961B49
:101B2000881F7A95C9F780950895EE0FFF1F0590DD
:101B3000F491E02D09940F931F93CF93DF9382309C
:101B4000910510F482E090E0E091E901F091EA0162
:101B500030E020E0B0E0A0E0309799F421153105A5
:101B600009F44AC0281B390B24303105D8F58A8185
:101B70009B816115710589F1FB0193838283FE01CD
:101B800011C0408151810281138148175907E0F04B
:101B90004817590799F4109761F012960C93129711
:101BA00013961C933296CF01DF91CF911F910F9125
:101BB00008950093E9011093EA01F4CF211531054E
:101BC00051F04217530738F0A901DB019A01BD011A
:101BD000DF01F801C1CFEF01F9CF9093EA018093C3
:101BE000E901CDCFFE01E20FF31F819391932250C3
:101BF000310939832883D7CF2091E7013091E8015B
:101C0000232B41F420916200309163003093E8016E
:101C10002093E7012091600030916100211531058A
:101C200041F42DB73EB74091640050916500241BEC
:101C3000350BE091E701F091E801E217F307A0F41A
:101C40002E1B3F0B2817390778F0AC014E5F5F4F12
:101C50002417350748F04E0F5F1F5093E80140935B
:101C6000E701819391939FCFF0E0E0E09CCFCF9389
:101C7000DF930097E9F0FC01329713821282A09162
:101C8000E901B091EA01ED0130E020E01097A1F404
:101C900020813181820F931F2091E7013091E8016B
:101CA0002817390709F061C0F093E801E093E701D4
:101CB000DF91CF910895EA01CE17DF07E8F54A8159
:101CC0005B819E0141155105B1F7E901FB83EA8370
:101CD00049915991C40FD51FEC17FD0761F480811C
:101CE00091810296840F951FE901998388838281EF
:101CF00093819B838A83F0E0E0E012968D919C9122
:101D000013970097B9F52D913C911197CD0102964B
:101D1000820F931F2091E7013091E80128173907BE
:101D200039F6309751F51092EA011092E901B0931B
:101D3000E801A093E701BCCFD383C28340815181E6
:101D4000840F951FC817D90761F44E5F5F4F8881D4
:101D50009981480F591F518340838A819B819383C6
:101D600082832115310509F0B0CFF093EA01E093A9
:101D7000E9019ECFFD01DC01C0CF13821282D7CFD3
:101D800010E0C4EDD0E003C0FE01CFDE2196C53DDA
:081D9000D107D1F7F894FFCF51
:101D98000000EB0180000C0D14150203040500007F
:101DA8000000F002540281025503B2029002A4021C
:041DB8000D0A000010
:00000001FF
