:1000000046C06AC069C068C067C066C03FC564C0FA
:1000100063C090C361C0FDC3D7C35EC05DC05CC098
:100020005BC029C459C00000000037003400310013
:1000300000000000000000000004050700000000B0
:100040000000000000000000000000360033003017
:100050000001020408102040800102040810200161
:1000600002040810204080400000000038003500E5
:100070003200040404040404040402020202020222
:10008000030303030303020203002D06A80911243E
:100090001FBECFE5D4E0DEBFCDBF10E0A0E6B0E0EC
:1000A000EEECF8E102C005900D92A03CB107D9F743
:1000B00022E0A0ECB0E001C01D92AC32B207E1F743
:1000C00010E0C6E4D0E003C02197FE01FAD9C534A0
:1000D000D107D1F7D8D6EFCB93CF8F929F92AF9223
:1000E000BF92FF920F931F93CF93DF93F090030281
:1000F0002BE02F1508F44AC02091050208E512E014
:10010000021B110927FD1395000F111F000F111F6E
:1001100020910402C8E8D0E0C21BD10927FDD39585
:10012000CC0FDD1FCC0FDD1F4E010D2E000CAA08D9
:10013000BB089801012E000C440B550B28193909F6
:100140004A095B09DC0146D924EB30E040E050E08D
:100150001BD9820E931EA41EB51E8C169D062CF074
:10016000E801801691060CF4E4012297CC0FDD1F04
:100170002FB7F8948F2D90E0FC01EE0FFF1FE80FD2
:10018000F91FE252FE4FD283C1832FBFDF91CF917F
:100190001F910F91FF90BF90AF909F908F90089507
:1001A000853041F0873049F0843051F48FB58F7736
:1001B0008FBD08958FB58F7DFBCF85B58F7D85BDB4
:1001C0000895CF93DF93282F30E0F901E05DFF4FD2
:1001D0008491F901EF5AFF4FD491F901EE58FF4F86
:1001E000C491CC2399F08111DBDFEC2FF0E0EE0F0E
:1001F000FF1FE95BFF4FA591B491EC91ED2381E0E6
:1002000090E009F480E0DF91CF91089580E090E0E4
:10021000FACF1F93CF93DF93282F30E0F901E05DF1
:10022000FF4F8491F901EF5AFF4FD491F901EE5835
:10023000FF4FC491CC23A1F0162F8111B1DFEC2F19
:10024000F0E0EE0FFF1FE859FF4FA591B4918FB773
:10025000F894EC91111108C0D095DE23DC938FBF88
:10026000DF91CF911F910895DE2BF8CFCF93DF93CD
:1002700090E0FC01EF5AFF4F24918E589F4FFC01F4
:1002800084918823D1F090E0880F991FFC01EA5DEA
:10029000FF4FA591B491FC01E859FF4FC591D4914E
:1002A00061110EC09FB7F8948C91E22FE0958E23D8
:1002B0008C932881E223E8839FBFDF91CF9108953B
:1002C0008FB7F894EC91E22BEC938FBFF6CF3FB74A
:1002D000F8948091180190911901A0911A01B091A0
:1002E0001B0122B708B600FE05C02F3F19F001968A
:1002F000A11DB11D3FBFBA2FA92F982F8827BC0180
:10030000CD01620F711D811D911D42E0660F771FA7
:10031000881F991F4A95D1F708958F929F92AF92A7
:10032000BF92CF92DF92EF92FF924B015C01CFDF41
:100330006B017C01CCDF6C197D098E099F09683E39
:10034000734081059105B0F321E0821A9108A1085C
:10035000B10888EEC80E83E0D81EE11CF11C8114A0
:100360009104A104B10431F7FF90EF90DF90CF909A
:10037000BF90AF909F908F900895AF92BF92CF9211
:10038000DF92EF92FF920F931F93CF93DF936C0155
:100390007B018B01040F151FEB015E01AE18BF0836
:1003A000C017D10759F06991D601ED91FC910190E8
:1003B000F081E02DC6010995892B79F7C501DF9100
:1003C000CF911F910F91FF90EF90DF90CF90BF9052
:1003D000AF900895FC01538D448D252F30E0842F7C
:1003E00090E0821B930B541710F0CF96089501975D
:1003F0000895FC01918D828D981761F0A28DAE0F4A
:10040000BF2FB11D5D968C91928D9F5F9F73928FD0
:1004100090E008958FEF9FEF0895FC01918D828DFC
:10042000981731F0828DE80FF11D858D90E00895C9
:100430008FEF9FEF0895FC01918D228D892F90E021
:10044000805C9F4F821B91098F73992708958CE1DF
:1004500091E0F1DF21E0892B09F420E0822F08955B
:1004600080E090E0892B19F0F2DF8111C9CD089569
:10047000FC01A48DA80FB92FB11DA35ABF4F2C9119
:10048000848D90E001968F739927848FA689B78910
:100490002C93A089B1898C9182748C93938D848DD7
:1004A000981306C00288F389E02D80818F7D8083B8
:1004B0000895EF92FF920F931F93CF93DF93EC0178
:1004C00081E0888F9B8D8C8D981319C0E889F989FC
:1004D000808185FF14C09FB7F894EE89FF896083FF
:1004E000E889F9898081827480839FBF81E090E0F0
:1004F000DF91CF911F910F91FF90EF900895F62E0D
:100500000B8D10E00F5F1F4F0F731127E02E8C8DA6
:100510008E110BC00FB607FCFACFE889F9898081EC
:1005200085FFF5CFCE01A4DFF2CFEB8DEC0FFD2FD1
:10053000F11DE35AFF4FF0829FB7F8940B8FEA89C1
:10054000FB8980818062D0CFCF93DF93EC01888DCF
:100550008823B1F0AA89BB89E889F9898C9185FD46
:1005600003C0808186FD0CC00FB607FCF7CF8C91CD
:1005700085FFF2CF808185FFEDCFCE0179DFEACF15
:10058000DF91CF91089585ED86BF06B604FCFDCFBF
:1005900010920C0108952091E800260F3327331F95
:1005A00021323105ECF420910C01FC0190E080E057
:1005B000243069F082E00895A091E8002191AC0117
:1005C00048535F4FA40FB52FB11D2C93019686178A
:1005D00098F38091E800680F6093E80080E0089548
:1005E00081E0089508958FEF9FEF08958FEF9FEFBB
:1005F00008958091C70090E09195819591090895A3
:10060000CF93DF93CB01EA01642FC5DFCE01DF91E9
:10061000CF910895CF93DF931F92CDB7DEB7698353
:1006200061E0CE010196B7DF81E090E00F90DF91AD
:10063000CF91089590E080E00895823001F14CF46C
:100640008130B1F088E0BDDD892B49F021E0822FB7
:1006500008958330B1F08430A9F783E00AC089E0BF
:10066000B0DD892B99F782E0ACDD892B79F7F5CFE6
:1006700088E0A7DD21E0892B51F720E0E8CF89E071
:10068000F8CF82E0F6CF60E084E0C3DD60E085E093
:10069000C0DD60E086E0BDDD60E087E0BACD61E00E
:1006A00084E0B7DD61E085E0B4DD61E086E0B1DDE6
:1006B00061E087E0AECDFC0101900020E9F73197C1
:1006C000AF01481B590BBC018CE191E056CECF9392
:1006D000DF93F1DFEC0180E890E0EDDF8C0F9D1FF0
:1006E000DF91CF9108950F931F93CF93DF93EC0188
:1006F00088819981009759F02A813B812617370715
:1007000030F081E0DF91CF911F910F9108958B011F
:100710006F5F7F4F01D8009759F0998388831B83BF
:100720000A832C813D81232B61F7FC011082E9CFE4
:1007300080E0E8CF1F920F920FB60F9211242F93F3
:100740003F938F939F93AF93BF93809114019091A8
:100750001501A0911601B09117013091130123E00A
:10076000230F2D3768F126E8230F0296A11DB11D36
:10077000209313018093140190931501A093160107
:10078000B09317018091180190911901A0911A015D
:10079000B0911B010196A11DB11D8093180190938A
:1007A0001901A0931A01B0931B01BF91AF919F91C2
:1007B0008F913F912F910F900FBE0F901F90189522
:1007C0000196A11DB11DD4CF1F920F920FB60F92AB
:1007D00011242F933F934F935F936F937F938F9346
:1007E0009F93AF93BF93EF93FF938CE191E040DE33
:1007F000FF91EF91BF91AF919F918F917F916F91F9
:100800005F914F913F912F910F900FBE0F901F90CE
:1008100018951F920F920FB60F9211242F938F935A
:100820009F93EF93FF93E0912C01F0912D01808134
:10083000E0913201F091330182FD1BC090818091E3
:1008400035018F5F8F7320913601821741F0E0915F
:100850003501F0E0E45EFE4F958F80933501FF9106
:10086000EF919F918F912F910F900FBE0F901F903E
:1008700018958081F4CF1F920F920FB60F9211241A
:100880002F933F934F935F936F937F938F939F9398
:10089000AF93BF93EF93FF9381B1887F803609F4C4
:1008A00049C0E8F5883209F4A0C018F5803109F490
:1008B00096C0B8F4882309F4E6C0883009F48FC0E4
:1008C000FF91EF91BF91AF919F918F917F916F9128
:1008D0005F914F913F912F910F900FBE0F901F90FE
:1008E0001895883109F481C0803251F780930B014B
:1008F00014C0803409F491C040F48033B9F38833D4
:10090000F9F680930B0185ECA1C0803509F47CC019
:10091000883509F48AC0883499F635DED1CF883914
:1009200009F481C030F5883729F050F4883611F089
:10093000803731F683E080930C0110920A0152C097
:10094000883809F470C0803919F0803809F0B8CFC0
:1009500080910A01803208F066C0E0910A0181E0CE
:100960008E0F80930A0183B1F0E0E651FF4F808340
:1009700039C0803B39F0D0F4803A09F46BC0883A32
:1009800009F09ECF84E080930C011092E900109250
:10099000E800F0E0E0E009958091E80081110FC0E7
:1009A00081E08093E8001092C80009C0803C09F4FF
:1009B000AACF883C09F4A7CF883B09F081CFE0910A
:1009C000E90081E08E0F8093E900F0E0E853FF4FEB
:1009D000808183B99091E9008091E80022C08091E4
:1009E000110183B985EC86BF6BCF90911001809186
:1009F0000F01981718F5E091100181E08E0F809398
:100A00001001F0E08081EDCFE091100181E08E0FC8
:100A10008093100183B1F0E0808390911001809168
:100A20000F019817F8F285E8DECFE091100181E020
:100A30008E0F8093100183B1F0E0808380910E01CE
:100A400081116BCF81E080930D0184EA86BF109203
:100A50000C0136CF85EC86BF10920C0180910A0103
:100A6000803230F4E0910A01F0E0E651FF4F10824D
:100A700060910A0170E08AEE90E0F0E0E0E0099514
:100A800010920A011DCF10920B0147CF1F920F92B7
:100A90000FB60F9211242F933F934F935F936F9351
:100AA0007F938F939F93AF93BF93CF93DF93EF93F6
:100AB000FF938091C600C0910202D0E087FF1EC064
:100AC0001DBC1CBC8091C6008F5F8093C6008091C6
:100AD000C600082E000C990B8C179D0724F48091FA
:100AE000C6008C309CF18CB59DB5049680349C4931
:100AF00008F472C08CB59DB5049670C08091C60094
:100B0000082E000C990B8C179D07E4F6E091C600A7
:100B10008E2FEE0F990BFC01EE0FFF1FE80FF91F50
:100B2000E252FE4F808186FFCDCFE091C6008E2F2E
:100B3000EE0F990BFC01EE0FFF1FE80FF91FE252B9
:100B4000FE4F808160E08F7364DBBCCF2CB53DB578
:100B5000E091C6008E2FEE0F990BFC01EE0FFF1FE8
:100B6000E80FF91FE252FE4F81819281820F931F9D
:100B70009BBD8ABDE091C6008E2FEE0F990BFC0144
:100B8000EE0FFF1FE80FF91FE252FE4F808186FF34
:100B900010C0E091C6008E2FEE0F990BFC01EE0FF6
:100BA000FF1FE80FF91FE252FE4F808161E08F7353
:100BB00030DBFF91EF91DF91CF91BF91AF919F918A
:100BC0008F917F916F915F914F913F912F910F90F6
:100BD0000FBE0F901F90189580E49CE99BBD8ABDC5
:100BE0008FEF8093C600E5CFEF92FF920F931F9394
:100BF000CF93DF93EC017B01198218821B821A824A
:100C00001D821C82FB0101900020E9F731978F01C2
:100C1000061B170BB80167DD28813981811112C0CD
:100C20002115310511F0C901EED4198218821D82F7
:100C30001C821B821A82DF91CF911F910F91FF902E
:100C4000EF9008951D830C83B701C901DF91CF9107
:100C50001F910F91FF90EF9027C60F931F93CF9393
:100C6000DF9310921F0110921E0188EE93E0A0E026
:100C7000B0E08093200190932101A0932201B093D2
:100C8000230182E790E090931D0180931C0180E492
:100C900090E0909329018093280129E230E030937D
:100CA0002B0120932A012BE230E030932D01209379
:100CB0002C012AE230E030932F0120932E019093F3
:100CC0003101809330018CE290E090933301809366
:100CD00032011092350110923601109237011092B4
:100CE00038011092130210921A02109221021092EF
:100CF0002202109223021092240281E080932002AB
:100D000080931D0210921E0292E090931F02809326
:100D10001202C8E6D1E0D0931702C093160288E60B
:100D200091E0D5D390931C0280931B02009709F4A5
:100D30009DC0FC019E01119221503040E1F788E7EF
:100D400090E090931502809314028DE090E09093D0
:100D500019028093180280911302882331F061E018
:100D60008DE084DA60E08DE054DACFE7D0E0FE0178
:100D70008491E82FF0E0EE0FFF1FE859FF4F8591B7
:100D8000949190932602809325020EE510E0F801DD
:100D900084918093270260E08DE068DAF801049185
:100DA0000093D001FE01C491EC2FF0E0EE0FFF1F85
:100DB000E95BFF4F859194919093D2018093D1018B
:100DC0001092DB011092DD011092DC011092DA0129
:100DD0001092D9011092D8011092D7011092D60129
:100DE0001092D5011092D4011092D3011092CF012C
:100DF0001092CE011092BA0180ED91E09093C30160
:100E00008093C2011092C0011092C1011092B901E9
:100E100089E08093BC0181E08093BD018093BE0195
:100E20008093BF01809102028C3048F591E0980FC9
:100E3000909302028093030290E0FC01EE0FFF1FEB
:100E4000E80FF91FE252FE4F88EB9BE0928381830B
:100E500063E870E086E092E0C7DE62E870E08CE074
:100E600092E0DF91CF911F910F91BECE10921702A9
:100E700010921602109215021092140266CF8FEF94
:100E800080930302E5CFCF93DF9300D0CDB7DEB7D9
:100E9000789483B7836083BF89B7816089BF92E00C
:100EA0009EBD8EB581608EBD8FB581608FBD85B5CD
:100EB000846085BD85B5806485BD87E886B91AB82C
:100EC000E0912C01F0912D019083E0912801F091A7
:100ED00029011082E0912A01F0912B018FEC80838F
:100EE00010923401E0913001F091310186E8808365
:100EF000E0912E01F0912F01808188698083E0913B
:100F00002E01F0912F0180818F7D808306E610E015
:100F10008AE6E82E80E0F82E60E0F80181918F01EA
:100F2000A5D961E0F70181917F01A0D9F0E00A36EF
:100F30001F0791F7B4DB809103028C3008F04BC09F
:100F400061E08AE093D980910302282F30E0F90113
:100F5000EE0FFF1FE20FF31FE252FE4F9081907CD5
:100F60009A60908310920402109205022CE0622F86
:100F70009CD2829FB001112430E020E0AB01420FEF
:100F8000531FFA01EE0FFF1FE40FF51FE252FE4F51
:100F9000908196FD12C02F5F3F4F2C30310571F7C5
:100FA00081110BC01FBC82E08EBD1DBC1CBC88B76C
:100FB000806188BF89B7806189BFE09103028E2F6D
:100FC00090E0FC01EE0FFF1FE80FF91FE252FE4F09
:100FD00080818064808390E080E07FD860E08EE054
:100FE00045D961E08FE042D980E0E82E80E0F82E1C
:100FF0008EE0E7D8082F47DB52DB80E01EDB88233A
:1010000009F446C140DB61E084E003D964E170E0AB
:1010100080E090E082D981E010DB882309F472C07F
:1010200064E170E080E090E078D913E366E970E075
:1010300080E090E072D9113581F119831A82C09055
:101040001002D09011028FEFC81AD80AB6018CE0B6
:1010500092E049DB882391F020910C0230910D023F
:101060008091100290911102BE016F5F7F4F820F3D
:10107000931F1AD4D0921102C092100288E890E017
:101080001ADB612F8CE191E014DA80E890E013DB49
:10109000809112018F5F8093120180911201843040
:1010A00009F044C1409110025091110260910C026C
:1010B00070910D028CE191E060D980E890E0FBDA5C
:1010C000209110023091110280910A0290910B023E
:1010D0002817390709F0E0C080910C0290910D02A9
:1010E0006091060270910702009709F4E6C061154D
:1010F000710509F0CFC0232B09F4ECC0FC018081FD
:1011000090E0E6C082E099DA882339F064E170E08B
:1011100080E090E002D916E389CF83E08EDA88235D
:1011200039F064E170E080E090E0F7D819E37ECF19
:1011300084E083DA882339F064E170E080E090E0B5
:10114000ECD813E273CF9FDA61E085E062D864E106
:1011500070E080E090E0E1D881E06FDA882339F038
:1011600064E170E080E090E0D8D812E35FCF82E0E5
:1011700064DA882339F064E170E080E090E0CDD853
:1011800015E354CF83E059DA882339F064E170E045
:1011900080E090E0C2D818E349CF84E04EDA88239B
:1011A00039F062E070E080E090E0B7D810E33ECF25
:1011B0006ADA61E086E02DD864E170E080E090E0DA
:1011C000ACD881E03ADA882339F064E170E080E05D
:1011D00090E0A3D811E32ACF82E02FDA882339F0F8
:1011E00064E170E080E090E098D814E31FCF83E0E2
:1011F00024DA882339F064E170E080E090E08DD853
:1012000017E314CF84E019DA882339F064E170E041
:1012100080E090E082D81AE209CF35DA61E087E019
:10122000F8D764E170E080E090E077D881E005DAFB
:10123000882339F064E170E080E090E06ED811E43A
:10124000F5CE82E0FAD9882339F064E170E080E0DD
:1012500090E063D812E4EACE83E0EFD9882339F036
:1012600064E170E080E090E058D813E4DFCE84E0E1
:10127000E4D9882339F064E170E080E090E04DD853
:1012800014E4D4CE64E170E080E090E046D807DA60
:1012900011E5CCCE00D31CC086EA90E018DA28C055
:1012A000109211021092100262E870E0C901FCD2A3
:1012B0003DC060E08FE0ADD741C06115710551F0D0
:1012C000232B41F0FB01808190E09195819591095C
:1012D000892B11F787E990E0FAD98AE590E0FDD6ED
:1012E00068EB7BE080E090E018D890E080E0F5D6F5
:1012F0001092120170E060E08CE092E0F4D920914D
:101300000C0230910D028111CBCF2115310511F066
:10131000C90179D110920D0210920C0210921102A3
:101320001092100210920F0210920E02002309F286
:1013300061E08FE06ED784EB90E0C9D9E114F1044D
:1013400009F456CE84D8882309F452CE59D650CE0B
:1013500080910C0290910D02009709F054D1809178
:10136000060290910702009709F04DD180911B026F
:1013700090911C0248D1809118029091190297FD1A
:1013800002C060E073C70895052E97FB16F4009421
:101390000FD057FD05D05BD007FC02D046F408C043
:1013A00050954095309521953F4F4F4F5F4F089591
:1013B00090958095709561957F4F8F4F9F4F0895C1
:1013C00068D0A59F900DB49F900DA49F800D911D96
:1013D00011240895B7FFF4CFF3DF821B930B089518
:1013E0002F923F924F925F926F927F928F929F9235
:1013F000AF92BF92CF92DF92EF92FF920F931F9323
:10140000CF93DF93CDB7DEB7CA1BDB0B0FB6F894D3
:10141000DEBF0FBECDBF09942A88398848885F8413
:101420006E847D848C849B84AA84B984C884DF8084
:10143000EE80FD800C811B81AA81B981CE0FD11D68
:101440000FB6F894DEBF0FBECDBFED010895A1E247
:101450001A2EAA1BBB1BFD010DC0AA1FBB1FEE1F2E
:10146000FF1FA217B307E407F50720F0A21BB30B79
:10147000E40BF50B661F771F881F991F1A9469F7F5
:1014800060957095809590959B01AC01BD01CF0151
:101490000895A29FB001B39FC001A39F01D0B29F46
:1014A000700D811D1124911D0895991B79E004C0D0
:1014B000991F961708F0961B881F7A95C9F7809593
:1014C0000895EE0FFF1F0590F491E02D09940F93FE
:1014D0001F93CF93DF938230910510F482E090E068
:1014E000E0912A02F0912B0230E020E0B0E0A0E091
:1014F000309799F42115310509F44AC0281B390B9E
:1015000024303105D8F58A819B816115710589F1F7
:10151000FB0193838283FE0111C0408151810281CE
:10152000138148175907E0F04817590799F41097A5
:1015300061F012960C93129713961C933296CF017A
:10154000DF91CF911F910F91089500932A0210937C
:101550002B02F4CF2115310551F04217530738F013
:10156000A901DB019A01BD01DF01F801C1CFEF0143
:10157000F9CF90932B0280932A02CDCFFE01E20F88
:10158000F31F819391932250310939832883D7CF58
:101590002091280230912902232B41F420916200EE
:1015A000309163003093290220932802209160003B
:1015B000309161002115310541F42DB73EB74091BE
:1015C000640050916500241B350BE0912802F091D6
:1015D0002902E217F307A0F42E1B3F0B2817390747
:1015E00078F0AC014E5F5F4F2417350748F04E0F7F
:1015F0005F1F5093290240932802819391939FCFBC
:10160000F0E0E0E09CCFCF93DF930097E9F0FC019E
:10161000329713821282A0912A02B0912B02ED011F
:1016200030E020E01097A1F420813181820F931FD8
:1016300020912802309129022817390709F061C04A
:10164000F0932902E0932802DF91CF910895EA01F7
:10165000CE17DF07E8F54A815B819E0141155105F0
:10166000B1F7E901FB83EA8349915991C40FD51F72
:10167000EC17FD0761F4808191810296840F951F1C
:10168000E90199838883828193819B838A83F0E037
:10169000E0E012968D919C9113970097B9F52D91EA
:1016A0003C911197CD010296820F931F2091280241
:1016B000309129022817390739F6309751F51092E1
:1016C0002B0210922A02B0932902A0932802BCCFC9
:1016D000D383C28340815181840F951FC817D907D6
:1016E00061F44E5F5F4F88819981480F591F518384
:1016F00040838A819B81938382832115310509F080
:10170000B0CFF0932B02E0932A029ECFFD01DC01C3
:10171000C0CF13821282D7CFB0E0A0E0E1E9FBE0B6
:1017200061CE8C01009741F4CB01D1DE8C01C80160
:10173000CDB7DEB7E0E172CEFC01E60FF71F9C01EA
:1017400022503109E217F30708F499C0D901CD916D
:10175000DC911197C617D70790F0C530D10538F343
:10176000CE0104978617970710F3C61BD70B229755
:10177000C193D1936D937C93CF0145DFD8CF5B01AB
:10178000AC1ABD0A4C018C0E9D1EA0912A02B0918C
:101790002B02512C412CF12CE12C109731F580912A
:1017A0002802909129028815990509F05CC0461617
:1017B000570608F058C08091600090916100009732
:1017C00041F48DB79EB74091640050916500841B31
:1017D000950BE817F90708F052C0F0932902E0933F
:1017E0002802F90171836083A2CF8D919C9111979A
:1017F00012966C90129713967C901397A815B905C2
:1018000059F56C0142E0C40ED11CCA14DB0420F16E
:10181000AC014A195B09DA011296159780F06282D1
:10182000738251834083D9016D937C93E114F10459
:1018300071F0D7011396FC93EE93129778CF22960E
:101840008C0F9D1FF90191838083F301EFCFF093FB
:101850002B02E0932A026BCF4816590608F42C019C
:101860007D01D3019ACFCB0132DE7C01009739F0A4
:10187000AE01B80107D0C801C6DE870158CF10E01D
:1018800000E055CFFB01DC0102C001900D924150F8
:101890005040D8F70895FB01DC018D91019080192B
:1018A0000110D9F3990B0895FB01DC0101900D9211
:1018B0000020E1F7089510E0C6E4D0E003C0FE0187
:0E18C00000DE2196C734D107D1F7F894FFCF90
:1018CE0000002C0280000809020304050607000030
:1018DE0000005902BD01EA01A4021B02F9010D022A
:1018EE000D0A0034353435004B657920507265731E
:1018FE00736564203A2000416363657373204772F9
:10190E00616E746564004163636573732044656E34
:10191E0069656400454D534B203752414D590000C7
:00000001FF
