:020000040000FA
:1000000046C06AC069C068C067C066C065C064C0D9
:1000100063C05CC261C0C9C2A3C25EC05DC05CC037
:100020005BC0F5C259C00000000037003400310049
:1000300000000000000000000004050700000000B0
:100040000000000000000000000000360033003017
:100050000001020408102040800102040810200161
:1000600002040810204080400000000038003500E5
:100070003200040404040404040402020202020222
:100080000303030303030202030012041A061124EC
:100090001FBECFE5D4E0DEBFCDBF10E0A0E6B0E0EC
:1000A000EEE5FFE002C005900D92A238B107D9F746
:1000B00021E0A2E8B0E001C01D92AA3BB207E1F73F
:1000C00010E0C6E4D0E003C02197FE0111D6C5348C
:1000D000D107D1F79AD437C793CF90E0FC01E05D08
:1000E000FF4F3491FC01EF5AFF4F2491FC01EE5871
:1000F000FF4FE491EE23E1F0332349F03530C9F0AE
:100100003730D1F0343019F48FB58F778FBDF0E0F0
:10011000EE0FFF1FE859FF4FA591B4918FB7F894E8
:1001200061110EC09C91E22FE095E923EC938FBF03
:1001300008958FB58F7DEACF85B58F7D85BDE7CFDB
:10014000EC91E22BF3CFCF93DF9390E0FC01EF5AD9
:10015000FF4F24918E589F4FFC0184918823D1F04A
:1001600090E0880F991FFC01EA5DFF4FA591B491C3
:10017000FC01E859FF4FC591D49161110EC09FB7A2
:10018000F8948C91E22FE0958E238C932881E223C2
:10019000E8839FBFDF91CF9108958FB7F894EC91DA
:1001A000E22BEC938FBFF6CF3FB7F8948091DA0043
:1001B0009091DB00A091DC00B091DD0022B708B681
:1001C00000FE05C02F3F19F00196A11DB11D3FBFD4
:1001D000BA2FA92F982F8827BC01CD01620F711D5E
:1001E000811D911D42E0660F771F881F991F4A9558
:1001F000D1F70895AF92BF92CF92DF92EF92FF9224
:100200000F931F93CF93DF936C017B018B01040F3E
:10021000151FEB015E01AE18BF08C017D10759F0DA
:100220006991D601ED91FC910190F081E02DC6011C
:100230000995892B79F7C501DF91CF911F910F9116
:10024000FF90EF90DF90CF90BF90AF900895FC01AA
:10025000538D448D252F30E0842F90E0821B930B2B
:10026000541710F0CF96089501970895FC01918DD1
:10027000828D981761F0A28DAE0FBF2FB11D5D96D4
:100280008C91928D9F5F9F73928F90E008958FEF76
:100290009FEF0895FC01918D828D981731F0828D2A
:1002A000E80FF11D858D90E008958FEF9FEF089581
:1002B000FC01918D228D892F90E0805C9F4F821BE5
:1002C00091098F73992708958EED90E0F1DF21E079
:1002D000892B09F420E0822F089580E090E0892B9B
:1002E00019F0F2DF81118CCE0895FC01A48DA80FC6
:1002F000B92FB11DA35ABF4F2C91848D90E0019668
:100300008F739927848FA689B7892C93A089B18987
:100310008C9182748C93938D848D981306C002887F
:10032000F389E02D80818F7D80830895EF92FF9285
:100330000F931F93CF93DF93EC0181E0888F9B8D08
:100340008C8D981319C0E889F989808185FF14C0C4
:100350009FB7F894EE89FF896083E889F9898081E5
:10036000827480839FBF81E090E0DF91CF911F91E5
:100370000F91FF90EF900895F62E0B8D10E00F5F18
:100380001F4F0F731127E02E8C8D8E110BC00FB6EF
:1003900007FCFACFE889F989808185FFF5CFCE0186
:1003A000A4DFF2CFEB8DEC0FFD2FF11DE35AFF4FD1
:1003B000F0829FB7F8940B8FEA89FB898081806275
:1003C000D0CFCF93DF93EC01888D8823B1F0AA8939
:1003D000BB89E889F9898C9185FD03C0808186FD00
:1003E0000CC00FB607FCF7CF8C9185FFF2CF808150
:1003F00085FFEDCFCE0179DFEACFDF91CF91089570
:1004000085ED86BF06B604FCFDCF1092CD000895A1
:100410002091A900260F3327331F21323105ECF438
:100420002091CD00FC0190E080E0243069F082E072
:100430000895A091A9002191AC0147575F4FA40FE7
:10044000B52FB11D2C930196861798F38091A900C2
:10045000680F6093A90080E0089581E008950895F1
:100460008FEF9FEF08958FEF9FEF089580918800A1
:1004700090E09195819591090895CF93DF93CB01F9
:10048000EA01642FC5DFCE01DF91CF910895CF93AC
:10049000DF931F92CDB7DEB7698361E0CE0101968D
:1004A000B7DF81E090E00F90DF91CF91089590E069
:1004B00080E00895FC0101900020E9F73197AF0139
:1004C000481B590BBC018EED90E094CE1F920F9209
:1004D0000FB60F9211242F933F938F939F93AF9357
:1004E000BF938091D6009091D700A091D800B09191
:1004F000D9003091D50023E0230F2D3768F126E88D
:10050000230F0296A11DB11D2093D5008093D60024
:100510009093D700A093D800B093D9008091DA00CF
:100520009091DB00A091DC00B091DD000196A11D4F
:10053000B11D8093DA009093DB00A093DC00B093B0
:10054000DD00BF91AF919F918F913F912F910F90BF
:100550000FBE0F901F9018950196A11DB11DD4CF0D
:100560001F920F920FB60F9211242F933F934F9328
:100570005F936F937F938F939F93AF93BF93EF930B
:10058000FF938EED90E0B1DEFF91EF91BF91AF91BF
:100590009F918F917F916F915F914F913F912F919B
:1005A0000F900FBE0F901F9018951F920F920FB6CD
:1005B0000F9211242F938F939F93EF93FF93E091CA
:1005C000EE00F091EF008081E091F400F091F500F1
:1005D00082FD1BC090818091F7008F5F8F73209107
:1005E000F800821741F0E091F700F0E0E252FF4F8F
:1005F000958F8093F700FF91EF919F918F912F91AD
:100600000F900FBE0F901F9018958081F4CF1F920E
:100610000F920FB60F9211242F933F934F935F9336
:100620006F937F938F939F93AF93BF93EF93FF93BA
:1006300081B1887F803609F449C0E8F5883209F431
:10064000A0C018F5803109F496C0B8F4882309F4E5
:10065000E6C0883009F48FC0FF91EF91BF91AF9150
:100660009F918F917F916F915F914F913F912F91CA
:100670000F900FBE0F901F901895883109F481C01C
:10068000803251F78093CC0014C0803409F491C0BB
:1006900040F48033B9F38833F9F68093CC0085ECCD
:1006A000A1C0803509F47CC0883509F48AC088343B
:1006B00099F6A6DED1CF883909F481C030F58837A4
:1006C00029F050F4883611F0803731F683E08093BA
:1006D000CD001092CB0052C0883809F470C0803928
:1006E00019F0803809F0B8CF8091CB00803208F043
:1006F00066C0E091CB0081E08E0F8093CB0083B188
:10070000F0E0E555FF4F808339C0803B39F0D0F4ED
:10071000803A09F46BC0883A09F09ECF84E0809358
:10072000CD001092AA001092A900F0E0E0E0099537
:100730008091A90081110FC081E08093A9001092DF
:10074000890009C0803C09F4AACF883C09F4A7CFEE
:10075000883B09F081CFE091AA0081E08E0F809361
:10076000AA00F0E0E757FF4F808183B99091AA007B
:100770008091A90022C08091D20083B985EC86BF08
:100780006BCF9091D1008091D000981718F5E0912F
:10079000D10081E08E0F8093D100F0E08081EDCF19
:1007A000E091D10081E08E0F8093D10083B1F0E021
:1007B00080839091D1008091D0009817F8F285E85D
:1007C000DECFE091D10081E08E0F8093D10083B124
:1007D000F0E080838091CF0081116BCF81E0809326
:1007E000CE0084EA86BF1092CD0036CF85EC86BF5E
:1007F0001092CD008091CB00803230F4E091CB009C
:10080000F0E0E555FF4F10826091CB0070E08BEA7D
:1008100090E0F0E0E0E009951092CB001DCF10923F
:10082000CC0047CF0F931F93CF93DF931092E1003B
:100830001092E00088EE93E0A0E0B0E08093E20048
:100840009093E300A093E400B093E5008AE690E083
:100850009093DF008093DE0080E490E09093EB00C3
:100860008093EA0029E230E03093ED002093EC0021
:100870002BE230E03093EF002093EE002AE230E0EC
:100880003093F1002093F0009093F3008093F200F6
:100890008CE290E09093F5008093F4001092F700C2
:1008A0001092F8001092F9001092FA001092A10133
:1008B0001092A8011092AF011092B0011092B101F4
:1008C0001092B20181E08093AE018093AB0110924F
:1008D000AC0192E09093AD018093A001C8E6D1E015
:1008E000D093A501C093A40188E691E007D290932C
:1008F000AA018093A901009709F47EC0FC019E0122
:10090000119221503040E1F788E790E09093A301E5
:100910008093A2018DE090E09093A7018093A601BF
:100920008091A101882331F061E08DE00CDC60E072
:100930008DE0D3DBCFE7D0E0FE018491E82FF0E03B
:10094000EE0FFF1FE859FF4F859194919093B401EA
:100950008093B3010EE510E0F80184918093B50116
:1009600060E08DE0F0DBF801049100939201FE015C
:10097000C491EC2FF0E0EE0FFF1FE95BFF4F859174
:100980009491909394018093930110929D01109201
:100990009F0110929E0110929C0110929B01109257
:1009A0009A01109299011092980110929701109259
:1009B000960110929501109291011092900110925F
:1009C0007C0182E991E090938501809384011092EB
:1009D00082011092830110927B0189E080937E0155
:1009E00081E080937F018093800180938101DF917A
:1009F000CF911F910F9108951092A5011092A4011B
:100A00001092A3011092A20185CFCF93DF93CDB7AF
:100A1000DEB7A1970FB6F894DEBF0FBECDBF7894B6
:100A200083B7836083BF89B7816089BF12E01EBD31
:100A30008EB581608EBD8FB581608FBD85B58460B8
:100A400085BD85B5806485BD87E886B91AB860E044
:100A500081E179DB61E08AE076DBE091EE00F09104
:100A6000EF001083E091EA00F091EB001082E0913A
:100A7000EC00F091ED008FEC80831092F600E09195
:100A8000F200F091F30086E88083E091F000F091AD
:100A9000F100808188698083E091F000F091F1009D
:100AA00080818F7D80839AE0892E912CA12CB12C9E
:100AB00020E0222E20E0322E88E790E0FBDC8EE75B
:100AC00090E0F8DC23E427B9369A3699FECFC4B01B
:100AD000D5B0D092D400C092D3000D2C000CEE08FB
:100AE000FF08F7FE6BC06DE28EED90E01FDC222761
:100AF0003327A9012C193D094E095F0919A28E015E
:100B00000F5D1F4FCA01B901A5019401BDD0605D01
:100B1000F80162938F01211531054105510591F7C7
:100B20000115110511F0C801C5DC8EE790E0C2DCAB
:100B30003BDB2B013C0188EEC82E83E0D82EE12C54
:100B4000F12C32DB6419750986099709683E7340F8
:100B500081059105B0F3F1E0CF1AD108E108F10861
:100B600028EE420E23E0521E611C711CC114D104F8
:100B7000E104F10431F7A091D300B091D4002FEF3C
:100B800030E0B0D02FEF33E040E050E061D0F22E03
:100B9000E32E022F132F61E08AE0D5DA011511054B
:100BA00011F560E08AE099DA2114310409F484CF68
:100BB0008BDB882309F480CF23DA7ECFA70196014F
:100BC00019A28E010F5D1F4FCA01B901A501940141
:100BD0005BD0605DF80162938F01211531054105FD
:100BE000510591F79DCF0F3F110511F461E0DACF68
:100BF000EAE3F0E08491853061F0873091F0843051
:100C0000A9F48FB580688FBD8F2D9E2D9BBD8ABDA9
:100C1000CBCF8FB580628FBD8F2D9E2D99BD88BDA6
:100C2000C3CF85B5806285BDF3BCBECF003811054A
:100C3000ECF6B7CF8091A9019091AA01FBD08091E9
:100C4000A6019091A70197FD02C060E07CCA0895BB
:100C5000052E97FB16F400940FD057FD05D014D045
:100C600007FC02D046F408C0509540953095219578
:100C70003F4F4F4F5F4F08959095809570956195C8
:100C80007F4F8F4F9F4F0895A1E21A2EAA1BBB1BC7
:100C9000FD010DC0AA1FBB1FEE1FFF1FA217B30748
:100CA000E407F50720F0A21BB30BE40BF50B661F5E
:100CB000771F881F991F1A9469F760957095809522
:100CC00090959B01AC01BD01CF010895A29FB00199
:100CD000B39FC001A39F01D0B29F700D811D11244D
:100CE000911D0895F3DFB7FF0895821B930B0895BC
:100CF000EE0FFF1F0590F491E02D09940F931F93C1
:100D0000CF93DF938230910510F482E090E0E09180
:100D1000B801F091B90130E020E0B0E0A0E03097F8
:100D200099F42115310509F44AC0281B390B2430E8
:100D30003105D8F58A819B816115710589F1FB0127
:100D400093838283FE0111C040815181028113810E
:100D500048175907E0F04817590799F4109761F0C0
:100D600012960C93129713961C933296CF01DF9133
:100D7000CF911F910F9108950093B8011093B9017D
:100D8000F4CF2115310551F04217530738F0A9016E
:100D9000DB019A01BD01DF01F801C1CFEF01F9CFFD
:100DA0009093B9018093B801CDCFFE01E20FF31FFC
:100DB000819391932250310939832883D7CF209191
:100DC000B6013091B701232B41F42091620030919C
:100DD00063003093B7012093B601209160003091F9
:100DE00061002115310541F42DB73EB740916400F3
:100DF00050916500241B350BE091B601F091B701CD
:100E0000E217F307A0F42E1B3F0B2817390778F0E1
:100E1000AC014E5F5F4F2417350748F04E0F5F1F40
:100E20005093B7014093B601819391939FCFF0E027
:100E3000E0E09CCFCF93DF930097E9F0FC0132977D
:100E400013821282A091B801B091B901ED0130E096
:100E500020E01097A1F420813181820F931F20910F
:100E6000B6013091B7012817390709F061C0F09336
:100E7000B701E093B601DF91CF910895EA01CE1753
:100E8000DF07E8F54A815B819E0141155105B1F705
:100E9000E901FB83EA8349915991C40FD51FEC17EF
:100EA000FD0761F4808191810296840F951FE9010D
:100EB00099838883828193819B838A83F0E0E0E039
:100EC00012968D919C9113970097B9F52D913C91B5
:100ED0001197CD010296820F931F2091B601309198
:100EE000B7012817390739F6309751F51092B90133
:100EF0001092B801B093B701A093B601BCCFD383D1
:100F0000C28340815181840F951FC817D90761F4AE
:100F10004E5F5F4F88819981480F591F51834083ED
:100F20008A819B81938382832115310509F0B0CF9B
:100F3000F093B901E093B8019ECFFD01DC01C0CF71
:100F400013821282D7CF10E0C6E4D0E003C0FE01C6
:100F5000CFDE2196C734D107D1F7F894FFCF000038
:100F6000BA018000000000009601FA002701E101AB
:100F7000580136014A0168656C6C6F000D0A00006B
:101E800011248FE594E09EBF8DBF24B614BE80E080
:101E90007AD021FEC7C08EE076D0AFE7BFEF809941
:101EA000FECF9096809BFDCFB9B91197F1F782E0F4
:101EB0008BB988E18AB957D0C82F823559F467D0D9
:101EC000E0E8FEE1E054F109A89583E085D0309781
:101ED000C9F742C08D7F09F551D0D82F182F80E661
:101EE000E82EF12C40D0D7018D937D011150D1F710
:101EF0004ED0C1110EC0A0E6B0E0E199FECFFFBB0D
:101F0000EEBB8D918DBBE29AE19A3196D150A9F743
:101F100023C0A0E6B0E045D01FC0C33041F42ED0AE
:101F2000C82F35D085911BD0C150E1F715C0C13005
:101F300071F424D0C82F2BD0E199FECFFFBBEEBBAC
:101F4000E09A8DB30CD03196C150B1F705C0C135C0
:101F500011F488E018D01BD08DE201D0ACCF5D9B8E
:101F6000FECF8CB90895C59ABD9A8BB187FFFDCF7E
:101F700084FD10C0A8958CB1C5980895F4DFE82FB2
:101F8000F2DFF82FF0CF98E191BD81BD0895EBDF2E
:101F9000803219F088E0F7DFFFCF80EAE0CFFB0165
:101FA000DC0160E46A0F9F01E0388EE1F807C8F4B5
:101FB00083E012D0309629F48FE38D938FEC8C93CD
:101FC000119781E00D901D9007D03296A613FACF9D
:101FD000F90185E001D081E187BFE89507B600FCF3
:061FE000FDCF112408955D
:061FFA000612D0CFE73F04
:00000001FF
