:020000040000FA
:1000000073C097C096C095C094C093C092C091C071
:1000100090C0CBC28EC038C312C38BC08AC089C007
:1000200088C064C386C008000000BE922449123E06
:10003000ABAAAA2ABECDCCCC4C3E00000080BEAB01
:10004000AAAAAA3E00000000BF000000803F0000F6
:10005000000000084178D3BB4387D1133D190E3C03
:10006000C3BD4282AD2B3E68EC8276BED98FE1A93A
:100070003E4C80EFFFBE01C4FF7F3F000000000048
:1000800000000000370034003100000000000000D4
:100090000000000405070000000000000000000050
:1000A0000000000000360033003000010204081098
:1000B00020408001020408102001020408102040A2
:1000C00080400000000038003500320004040404C1
:1000D00004040404020202020202030303030303F2
:1000E000020203008104640711241FBECFE5D4E09F
:1000F000DEBFCDBF10E0A0E6B0E0E8E2F7E102C06D
:1001000005900D92A838B107D9F721E0A8E8B0E032
:1001100001C01D92AE3BB207E1F710E0C3E7D0E0AB
:1001200003C02197FE01C9D9C237D107D1F7DCD46A
:10013000EFCA66CF90E0FC01E657FF4F3491FC0117
:10014000E555FF4F2491FC01E453FF4FE491EE236A
:10015000E1F0332349F03530C9F03730D1F0343095
:1001600019F48FB58F778FBDF0E0EE0FFF1FEE53C0
:10017000FF4FA591B4918FB7F89461110EC09C9177
:10018000E22FE095E923EC938FBF08958FB58F7D23
:10019000EACF85B58F7D85BDE7CFEC91E22BF3CF1C
:1001A000CF93DF9390E0FC01E555FF4F24918453FA
:1001B0009F4FFC0184918823D1F090E0880F991F14
:1001C000FC01E058FF4FA591B491FC01EE53FF4FA5
:1001D000C591D49161110EC09FB7F8948C91E22F14
:1001E000E0958E238C932881E223E8839FBFDF91E3
:1001F000CF9108958FB7F894EC91E22BEC938FBFD9
:10020000F6CF3FB7F8948091DE009091DF00A09187
:10021000E000B091E10022B708B600FE05C02F3F14
:1002200019F00196A11DB11D3FBFBA2FA92F982F1C
:100230008827BC01CD01620F711D811D911D42E017
:10024000660F771F881F991F4A95D1F70895AF92BF
:10025000BF92CF92DF92EF92FF920F931F93CF93B3
:10026000DF936C017B018B01040F151FEB015E0115
:10027000AE18BF08C017D10759F06991D601ED91AA
:10028000FC910190F081E02DC6010995892B79F749
:10029000C501DF91CF911F910F91FF90EF90DF90FB
:1002A000CF90BF90AF900895FC01538D448D252FC2
:1002B00030E0842F90E0821B930B541710F0CF9600
:1002C000089501970895FC01918D828D981761F032
:1002D000A28DAE0FBF2FB11D5D968C91928D9F5F49
:1002E0009F73928F90E008958FEF9FEF0895FC0128
:1002F000918D828D981731F0828DE80FF11D858DDB
:1003000090E008958FEF9FEF0895FC01918D228D6D
:10031000892F90E0805C9F4F821B91098F739927F2
:10032000089582EE90E0F1DF21E0892B09F420E0CE
:10033000822F089580E090E0892B19F0F2DF81117F
:100340005FCE0895FC01A48DA80FB92FB11DA35A4B
:10035000BF4F2C91848D90E001968F739927848FE5
:10036000A689B7892C93A089B1898C9182748C93CA
:10037000938D848D981306C00288F389E02D8081C7
:100380008F7D80830895EF92FF920F931F93CF93F9
:10039000DF93EC0181E0888F9B8D8C8D981319C0C1
:1003A000E889F989808185FF14C09FB7F894EE89A8
:1003B000FF896083E889F9898081827480839FBF87
:1003C00081E090E0DF91CF911F910F91FF90EF902E
:1003D0000895F62E0B8D10E00F5F1F4F0F7311273E
:1003E000E02E8C8D8E110BC00FB607FCFACFE8897A
:1003F000F989808185FFF5CFCE01A4DFF2CFEB8DA7
:10040000EC0FFD2FF11DE35AFF4FF0829FB7F894D8
:100410000B8FEA89FB8980818062D0CFCF93DF93F5
:10042000EC01888D8823B1F0AA89BB89E889F98914
:100430008C9185FD03C0808186FD0CC00FB607FC42
:10044000F7CF8C9185FFF2CF808185FFEDCFCE0174
:1004500079DFEACFDF91CF91089585ED86BF06B6AB
:1004600004FCFDCF1092D30008952091AF00260F19
:100470003327331F21323105ECF42091D300FC01E6
:1004800090E080E0243069F082E00895A091AF0010
:100490002191AC0141575F4FA40FB52FB11D2C9393
:1004A0000196861798F38091AF00680F6093AF00B4
:1004B00080E0089581E0089508958FEF9FEF0895FB
:1004C0008FEF9FEF089580918E0090E09195819538
:1004D00091090895CF93DF93CB01EA01642FC5DF23
:1004E000CE01DF91CF910895CF93DF931F92CDB7C7
:1004F000DEB7698361E0CE010196B7DF81E090E06D
:100500000F90DF91CF91089590E080E00895FC0175
:1005100001900020E9F73197AF01481B590BBC014E
:1005200082EE90E094CE8F929F92AF92BF920F9303
:100530001F93CF93DF93CDB7DEB7A1970FB6F89493
:10054000DEBF0FBECDBF19A2423008F44AE08E01D3
:100550000F5D1F4F842E912CB12CA12CA50194016D
:1005600000D6E62FB901CA01EA30ECF4E05DD8010B
:10057000EE938D01232B242B252B81F790E080E037
:10058000109711F0CD01C3DFA1960FB6F894DEBF2E
:100590000FBECDBFDF91CF911F910F91BF90AF9054
:1005A0009F908F900895E95CE2CF1F920F920FB653
:1005B0000F9211242F933F938F939F93AF93BF93E9
:1005C0008091DA009091DB00A091DC00B091DD0019
:1005D0003091D90023E0230F2D3768F126E8230F4F
:1005E0000296A11DB11D2093D9008093DA0090934B
:1005F000DB00A093DC00B093DD008091DE009091E1
:10060000DF00A091E000B091E1000196A11DB11DB5
:100610008093DE009093DF00A093E000B093E100B0
:10062000BF91AF919F918F913F912F910F900FBEEE
:100630000F901F9018950196A11DB11DD4CF1F9248
:100640000F920FB60F9211242F933F934F935F9306
:100650006F937F938F939F93AF93BF93EF93FF938A
:1006600082EE90E06FDEFF91EF91BF91AF919F918D
:100670008F917F916F915F914F913F912F910F904B
:100680000FBE0F901F9018951F920F920FB60F92EA
:1006900011242F938F939F93EF93FF93E091F20098
:1006A000F091F3008081E091F800F091F90082FD73
:1006B0001BC090818091FB008F5F8F732091FC00A5
:1006C000821741F0E091FB00F0E0EE51FF4F958F73
:1006D0008093FB00FF91EF919F918F912F910F904D
:1006E0000FBE0F901F9018958081F4CF1F920F922C
:1006F0000FB60F9211242F933F934F935F936F93F5
:100700007F938F939F93AF93BF93EF93FF9381B1A9
:10071000887F803609F449C0E8F5883209F4A0C022
:1007200018F5803109F496C0B8F4882309F4E6C0BE
:10073000883009F48FC0FF91EF91BF91AF919F91E5
:100740008F917F916F915F914F913F912F910F907A
:100750000FBE0F901F901895883109F481C0803228
:1007600051F78093D20014C0803409F491C040F452
:100770008033B9F38833F9F68093D20085ECA1C0B9
:10078000803509F47CC0883509F48AC0883499F62C
:1007900064DED1CF883909F481C030F5883729F07B
:1007A00050F4883611F0803731F683E08093D3001F
:1007B0001092D10052C0883809F470C0803919F005
:1007C000803809F0B8CF8091D100803208F066C03F
:1007D000E091D10081E08E0F8093D10083B1F0E0F1
:1007E000EF54FF4F808339C0803B39F0D0F4803A1A
:1007F00009F46BC0883A09F09ECF84E08093D3005F
:100800001092B0001092AF00F0E0E0E00995809106
:10081000AF0081110FC081E08093AF0010928F0074
:1008200009C0803C09F4AACF883C09F4A7CF883BD3
:1008300009F081CFE091B00081E08E0F8093B0008D
:10084000F0E0E157FF4F808183B99091B000809133
:10085000AF0022C08091D80083B985EC86BF6BCFF2
:100860009091D7008091D600981718F5E091D700A5
:1008700081E08E0F8093D700F0E08081EDCFE09192
:10088000D70081E08E0F8093D70083B1F0E08083A2
:100890009091D7008091D6009817F8F285E8DECFC6
:1008A000E091D70081E08E0F8093D70083B1F0E014
:1008B00080838091D50081116BCF81E08093D4003B
:1008C00084EA86BF1092D30036CF85EC86BF1092A3
:1008D000D3008091D100803230F4E091D100F0E07B
:1008E000EF54FF4F10826091D10070E081EB90E0F7
:1008F000F0E0E0E009951092D1001DCF1092D200F7
:1009000047CF0F931F93CF93DF931092E500109280
:10091000E40088EE93E0A0E0B0E08093E6009093DE
:10092000E700A093E800B093E9008AE690E0909396
:10093000E3008093E20080E490E09093EF008093E6
:10094000EE0029E230E03093F1002093F0002BE23A
:1009500030E03093F3002093F2002AE230E030934D
:10096000F5002093F4009093F7008093F6008CE25A
:1009700090E09093F9008093F8001092FB001092A1
:10098000FC001092FD001092FE001092A501109242
:10099000AC011092B3011092B4011092B501109203
:1009A000B60181E08093B2018093AF011092B00153
:1009B00092E09093B1018093A401C8E6D1E0D09376
:1009C000A901C093A80188E691E07DD59093AE017E
:1009D0008093AD01009709F47EC0FC019E01119245
:1009E00021503040E1F788E790E09093A701809391
:1009F000A6018DE090E09093AB018093AA018091D5
:100A0000A501882331F061E08DE0CADB60E08DE074
:100A100091DBC9EDD0E0FE018491E82FF0E0EE0F0C
:100A2000FF1FEE53FF4F859194919093B8018093EF
:100A3000B70108EB10E0F80184918093B90160E000
:100A40008DE0AEDBF801049100939601FE01C491A4
:100A5000EC2FF0E0EE0FFF1FEF55FF4F85919491C3
:100A600090939801809397011092A1011092A30195
:100A70001092A2011092A00110929F0110929E016B
:100A800010929D0110929C0110929B0110929A016C
:100A90001092990110929501109294011092800188
:100AA00086E991E0909389018093880110928601F4
:100AB0001092870110927F0189E08093820181E08A
:100AC000809383018093840180938501DF91CF918E
:100AD0001F910F9108951092A9011092A8011092F0
:100AE000A7011092A60185CF789483B7836083BF56
:100AF00089B7816089BFC2E0CEBD8EB581608EBDF1
:100B00008FB581608FBD85B5846085BD85B58064F6
:100B100085BD87E886B91AB860E08EE041DB61E008
:100B200085E03EDB61E086E03BDB61E087E038DBCF
:100B300061E088E035DB61E089E032DBE091F200E2
:100B4000F091F300C083E091EE00F091EF0010828D
:100B5000E091F000F091F1008FEC80831092FA00A8
:100B6000E091F600F091F70086E88083E091F400D0
:100B7000F091F500808188698083E091F400F09124
:100B8000F50080818F7D808393E9292E90E0392EB6
:100B900000E010E0C5E0D0E0C12CD12C760120E4CB
:100BA00027B9369A3699FECF64B175B1072E000C7D
:100BB000880B990B9DD19B01AC01C701B60100D3F5
:100BC0006B017C011EDB2B013C018AE0882E912CFD
:100BD000A12CB12C16DB6419750986099709683EAA
:100BE000734081059105B0F381E0881A9108A1084E
:100BF000B108E8EE4E0EE3E05E1E611C711C81142C
:100C00009104A104B10431F7219749F620E030E0C6
:100C100040EA50E4C701B60137D39B01AC0160E064
:100C200070EC8FE794E430D320E030E040E85FE3FD
:100C3000C6D29B01AC0160E070E48CE196E424D361
:100C400020E030E44CE156E41FD3C0D320E030E490
:100C500043E555E419D32FE03FEC4BE55BE3B0D21D
:100C60009B01AC0160E070E080E89FE30DD323E3DB
:100C700033E948E853E4A3D26B017C01AC019B014A
:100C8000E5D3882301F188E790E041DC84E890E037
:100C90003EDC20E030E040EA51E4C701B60122D159
:100CA00087FF8FC060E088E045DA61E089E078DAAC
:100CB00060E089E03FDA60E085E03CDA61E087E00F
:100CC00039DA60E0B8C046015701E894B7F82FEF71
:100CD0003FEF4FE75FE7C501B401B8D381110CC006
:100CE0002FEF3FEF4FE75FE7C501B401FBD01816C8
:100CF0001CF48CE790E0C9CF2FEF3FEF4FE75FE4A4
:100D0000C701B6015AD318161CF480E890E0BDCF95
:100D10002FEF3FEF4FE75FECC701B601E3D087FD50
:100D2000F4CF20E030E0A901C701B601DBD087FF96
:100D300045C06DE282EE90E026DBC701B601905817
:100D40002AE037ED43EA5BE33BD22B013C0109D3B8
:100D50004B015C01CBD09B01AC01C301B2012FD28E
:100D60002B013C014AE0C501B401DDDB6EE282EEFD
:100D700090E009DB20E030E040E251E4C301B20141
:100D800016D12B013C01EDD24B01B12CA12C4AE034
:100D9000C501B401C8DBC501B401A8D09B01AC01F9
:100DA000C301B2010CD220E030E040E251E4FFD0B8
:100DB000D8D290E080E04AE0B6DB68CFC701B60148
:100DC000BFCF20E030E040EA51E4C701B601F5D2E0
:100DD00087FD63C020E030E040EF51E4C701B60179
:100DE00081D018160CF459C0C701B601B5D29B01C9
:100DF000AC012451310941095109AFEFB0E0A7D14D
:100E00002AE030E040E050E086D1F22EE32EC22FFF
:100E1000D32F61E089E0C4D92097C9F460E089E06C
:100E200089D961E088E086D960E085E083D960E017
:100E300087E080D961E086E07DD90115110509F4CC
:100E4000A9CE6FDA882309F4A5CEDAD8A3CECF3F96
:100E5000D10511F461E0E3CFF1018491853061F0B7
:100E6000873091F08430A9F48FB580688FBD8F2DC5
:100E70009E2D9BBD8ABDD5CF8FB580628FBD8F2D36
:100E80009E2D99BD88BDCDCF85B5806285BDF3BC53
:100E9000C8CFC038D105F4F6C1CF20E030E040EF34
:100EA00051E4C701B60189D218163CF661E088E02A
:100EB00041D961E089E074D961E089E03BD961E022
:100EC00085E038D960E0FBCE8091AD019091AE0114
:100ED00096D38091AA019091AB0197FD02C060E08A
:100EE0005FC9089540D008F481E00895E89409C0EE
:100EF00097FB3EF490958095709561957F4F8F4F4D
:100F00009F4F9923A9F0F92F96E9BB279395F69562
:100F1000879577956795B795F111F8CFFAF4BB0FE0
:100F200011F460FF1BC06F5F7F4F8F4F9F4F16C044
:100F3000882311F096E911C0772321F09EE8872FCE
:100F4000762F05C0662371F096E8862F70E060E08A
:100F50002AF09A95660F771F881FDAF7880F969503
:100F6000879597F90895990F0008550FAA0BE0E8A7
:100F7000FEEF16161706E807F907C0F0121613065B
:100F8000E407F50798F0621B730B840B950B39F49B
:100F90000A2661F0232B242B252B21F408950A2601
:100FA00009F4A140A6958FEF811D811D08950BD0F6
:100FB00078C069D028F06ED018F0952309F05AC097
:100FC0005FC01124A2C07ED0A0F3959FD1F3950FEE
:100FD00050E0551F629FF001729FBB27F00DB11DBD
:100FE000639FAA27F00DB11DAA1F649F6627B00D4D
:100FF000A11D661F829F2227B00DA11D621F739F36
:10100000B00DA11D621F839FA00D611D221F749F43
:101010003327A00D611D231F849F600D211D822F8A
:10102000762F6A2F11249F5750408AF0E1F08823D1
:101030004AF0EE0FFF1FBB1F661F771F881F9150DE
:101040005040A9F79E3F510570F014C05EC05F3F4D
:10105000ECF3983EDCF3869577956795B795F79511
:10106000E7959F5FC1F7FE2B880F911D9695879599
:1010700097F9089597F99F6780E870E060E0089518
:101080009FEF80EC089500240A94161617061806A0
:101090000906089500240A9412161306140605067C
:1010A0000895092E0394000C11F4882352F0BB0F0D
:1010B00040F4BF2B11F460FF04C06F5F7F4F8F4F70
:1010C0009F4F089557FD9058440F551F59F05F3FAB
:1010D00071F04795880F97FB991F61F09F3F79F05A
:1010E00087950895121613061406551FF2CF4695DC
:1010F000F1DF08C0161617061806991FF1CF86955E
:101100007105610508940895E894BB276627772741
:10111000CB0197F90895052E97FB16F400940FD094
:1011200057FD05D01ED007FC02D046F408C05095EC
:101130004095309521953F4F4F4F5F4F08959095C3
:101140008095709561957F4F8F4F9F4F08952BD05D
:10115000A59F900DB49F900DA49F800D911D11240B
:101160000895A1E21A2EAA1BBB1BFD010DC0AA1FE8
:10117000BB1FEE1FFF1FA217B307E407F50720F000
:10118000A21BB30BE40BF50B661F771F881F991F7B
:101190001A9469F760957095809590959B01AC01C4
:1011A000BD01CF010895A29FB001B39FC001A39FCD
:1011B00001D0B29F700D811D1124911D08955058CA
:1011C000BB27AA270ED06DCF5EDF30F063DF20F0A3
:1011D00031F49F3F11F41EF453CF0EF4E095E7FB7A
:1011E00049CFE92F6FDF80F3BA17620773078407CF
:1011F000950718F071F49EF587CF0EF4E0950B2E4D
:10120000BA2FA02D0B01B90190010C01CA01A00158
:101210001124FF27591B99F0593F50F4503E68F1B3
:101220001A16F040A22F232F342F4427585FF3CFF4
:10123000469537952795A795F0405395C9F77EF4C5
:101240001F16BA0B620B730B840BBAF09150A1F00E
:10125000FF0FBB1F661F771F881FC2F70EC0BA0F94
:10126000621F731F841F48F4879577956795B7951C
:10127000F7959E3F08F0B3CF9395880F08F0992714
:10128000EE0F9795879508950CD00BCF03DF40F0B4
:10129000FADE30F021F45F3F19F0ECCE511135CF7A
:1012A000EFCE10DF98F39923C9F35523B1F3951BC3
:1012B000550BBB27AA2762177307840738F09F5F77
:1012C0005F4F220F331F441FAA1FA9F333D00E2EE6
:1012D0003AF0E0E830D091505040E695001CCAF753
:1012E00029D0FE2F27D0660F771F881FBB1F261718
:1012F00037074807AB07B0E809F0BB0B802DBF01EB
:10130000FF2793585F4F2AF09E3F510568F0B2CEF9
:10131000FCCE5F3FECF3983EDCF3869577956795BE
:10132000B795F7959F5FC9F7880F911D969587959B
:1013300097F90895E1E0660F771F881FBB1F6217BA
:1013400073078407BA0720F0621B730B840BBA0B78
:10135000EE1F88F7E095089504D06894B111D5CEBA
:101360000895B8DE88F09F5790F0B92F9927B751AC
:10137000A0F0D1F0660F771F881F991F1AF0BA9559
:10138000C9F712C0B13081F0BFDEB1E00895BCCE24
:10139000672F782F8827B85F39F0B93FCCF386954F
:1013A00077956795B395D9F73EF4909580957095AC
:1013B00061957F4F8F4F9F4F0895D5DD08F48FEFD4
:1013C00008950EF047C05CCE689454CE83DEC8F317
:1013D0009923D1F3C6F3DF93CF931F930F93FF921B
:1013E000C92FDD2788232AF02197660F771F881FD2
:1013F000DAF720E030E040E85FEB9FE3883920F047
:10140000803E30F021968F77DBDEE6E2F0E003C02D
:10141000D7DEE3E5F0E02CD08B01BE01EC01FB2E22
:101420006F5771097595771F880B990B61DD28E15E
:1014300032E741E35FE3C7DDAF2D9801AE01FF90D6
:101440000F911F91CF91DF91CCDE2BCE8CDD880BDD
:10145000990B08959F3F31F0915020F4879577952F
:101460006795B795880F911D9695879597F908957B
:10147000DF93CF931F930F93FF92EF92DF927B0145
:101480008C01689405C0DA2EEF019DDDFE01E89421
:10149000A5912591359145915591AEF3EF01A1DECE
:1014A000FE019701A801DA9479F7DF90EF90FF90A1
:1014B0000F911F91CF91DF910895EE0FFF1F0590BF
:1014C000F491E02D09940F931F93CF93DF93823013
:1014D000910510F482E090E0E091BC01F091BD0133
:1014E00030E020E0B0E0A0E0309799F4211531051C
:1014F00009F44AC0281B390B24303105D8F58A81FC
:101500009B816115710589F1FB0193838283FE0143
:1015100011C0408151810281138148175907E0F0C1
:101520004817590799F4109761F012960C93129787
:1015300013961C933296CF01DF91CF911F910F919B
:1015400008950093BC011093BD01F4CF211531051E
:1015500051F04217530738F0A901DB019A01BD0190
:10156000DF01F801C1CFEF01F9CF9093BD01809366
:10157000BC01CDCFFE01E20FF31F81939193225066
:10158000310939832883D7CF2091BA013091BB012B
:10159000232B41F420916200309163003093BB0112
:1015A0002093BA012091600030916100211531052E
:1015B00041F42DB73EB74091640050916500241B63
:1015C000350BE091BA01F091BB01E217F307A0F4EB
:1015D0002E1B3F0B2817390778F0AC014E5F5F4F89
:1015E0002417350748F04E0F5F1F5093BB014093FF
:1015F000BA01819391939FCFF0E0E0E09CCFCF932D
:10160000DF930097E9F0FC01329713821282A091D8
:10161000BC01B091BD01ED0130E020E01097A1F4D4
:1016200020813181820F931F2091BA013091BB013B
:101630002817390709F061C0F093BB01E093BA01A4
:10164000DF91CF910895EA01CE17DF07E8F54A81CF
:101650005B819E0141155105B1F7E901FB83EA83E6
:1016600049915991C40FD51FEC17FD0761F4808192
:1016700091810296840F951FE90199838883828165
:1016800093819B838A83F0E0E0E012968D919C9198
:1016900013970097B9F52D913C911197CD010296C2
:1016A000820F931F2091BA013091BB01281739078F
:1016B00039F6309751F51092BD011092BC01B093EC
:1016C000BB01A093BA01BCCFD383C28340815181B7
:1016D000840F951FC817D90761F44E5F5F4F88814B
:1016E0009981480F591F518340838A819B8193833D
:1016F00082832115310509F0B0CFF093BD01E0934D
:10170000BC019ECFFD01DC01C0CF13821282D7CF76
:1017100010E0C3E7D0E003C0FE01CFDE2196C4375E
:10172000D107D1F7F894FFCF0000BE018000000080
:101730000000C301270154010E02850163017701F6
:101740006E616E00696E66006F7666000D0A0000BD
:101E800011248FE594E09EBF8DBF24B614BE80E080
:101E90007AD021FEC7C08EE076D0AFE7BFEF809941
:101EA000FECF9096809BFDCFB9B91197F1F782E0F4
:101EB0008BB988E18AB957D0C82F823559F467D0D9
:101EC000E0E8FEE1E054F109A89583E085D0309781
:101ED000C9F742C08D7F09F551D0D82F182F80E661
:101EE000E82EF12C40D0D7018D937D011150D1F710
:101EF0004ED0C1110EC0A0E6B0E0E199FECFFFBB0D
:101F0000EEBB8D918DBBE29AE19A3196D150A9F743
:101F100023C0A0E6B0E045D01FC0C33041F42ED0AE
:101F2000C82F35D085911BD0C150E1F715C0C13005
:101F300071F424D0C82F2BD0E199FECFFFBBEEBBAC
:101F4000E09A8DB30CD03196C150B1F705C0C135C0
:101F500011F488E018D01BD08DE201D0ACCF5D9B8E
:101F6000FECF8CB90895C59ABD9A8BB187FFFDCF7E
:101F700084FD10C0A8958CB1C5980895F4DFE82FB2
:101F8000F2DFF82FF0CF98E191BD81BD0895EBDF2E
:101F9000803219F088E0F7DFFFCF80EAE0CFFB0165
:101FA000DC0160E46A0F9F01E0388EE1F807C8F4B5
:101FB00083E012D0309629F48FE38D938FEC8C93CD
:101FC000119781E00D901D9007D03296A613FACF9D
:101FD000F90185E001D081E187BFE89507B600FCF3
:061FE000FDCF112408955D
:061FFA000612D0CFE73F04
:00000001FF
