:1000000073C097C096C095C094C093C092C091C071
:1000100090C099C38EC006C4E0C38BC08AC089C09B
:1000200088C032C486C008000000BE922449123E37
:10003000ABAAAA2ABECDCCCC4C3E00000080BEAB01
:10004000AAAAAA3E00000000BF000000803F0000F6
:10005000000000084178D3BB4387D1133D190E3C03
:10006000C3BD4282AD2B3E68EC8276BED98FE1A93A
:100070003E4C80EFFFBE01C4FF7F3F000000000048
:10008000000000003700340031000000000036009E
:1000900033003000000000000000000000040507ED
:1000A0000000000000000000000000010204081031
:1000B00020408001020408102001020408102040A2
:1000C00080400000000038003500320004040404C1
:1000D00004040404020202020202030303030303F2
:1000E000020203004F05820711241FBECFE5D4E0B2
:1000F000DEBFCDBF10E0A0E6B0E0E6EFF6E102C063
:1001000005900D92A23EB107D9F722E0A2EEB0E031
:1001100001C01D92AC31B207E1F710E0C3E7D0E0B7
:1001200003C02197FE01B0D9C237D107D1F7D3D58B
:10013000D6CA66CFCF93DF9390E0FC01E555FF4F21
:10014000249184539F4FFC0184918823D1F090E047
:10015000880F991FFC01E058FF4FA591B491FC0155
:10016000EE53FF4FC591D49161110EC09FB7F89423
:100170008C91E22FE0958E238C932881E223E883F3
:100180009FBFDF91CF9108958FB7F894EC91E22B48
:10019000EC938FBFF6CF3FB7F89480913C019091DC
:1001A0003D01A0913E01B0913F0122B708B600FE8B
:1001B00005C02F3F19F00196A11DB11D3FBFBA2FF9
:1001C000A92F982F8827BC01CD01620F711D811DB9
:1001D000911D42E0660F771F881F991F4A95D1F73E
:1001E00008958F929F92AF92BF92CF92DF92EF923B
:1001F000FF924B015C01CFDF6B017C01CCDF6C19FE
:100200007D098E099F09683E734081059105B0F311
:1002100021E0821A9108A108B10888EEC80E83E097
:10022000D81EE11CF11C81149104A104B10431F722
:10023000FF90EF90DF90CF90BF90AF909F908F9006
:100240000895AF92BF92CF92DF92EF92FF920F93F9
:100250001F93CF93DF936C017B018B01040F151F5C
:10026000EB015E01AE18BF08C017D10759F06991C4
:10027000D601ED91FC910190F081E02DC601099528
:10028000892B79F7C501DF91CF911F910F91FF90D5
:10029000EF90DF90CF90BF90AF900895FC01538D09
:1002A000448D252F30E0842F90E0821B930B541750
:1002B00010F0CF96089501970895FC01918D828DDD
:1002C000981761F0A28DAE0FBF2FB11D5D968C9176
:1002D000928D9F5F9F73928F90E008958FEF9FEFB5
:1002E0000895FC01918D828D981731F0828DE80F71
:1002F000F11D858D90E008958FEF9FEF0895FC012B
:10030000918D228D892F90E0805C9F4F821B9109F7
:100310008F739927089580E491E0F1DF21E0892B24
:1003200009F420E0822F089580E090E0892B19F0F5
:10033000F2DF811165CE0895FC01A48DA80FB92FBD
:10034000B11DA35ABF4F2C91848D90E001968F73FD
:100350009927848FA689B7892C93A089B1898C911C
:1003600082748C93938D848D981306C00288F389D0
:10037000E02D80818F7D80830895EF92FF920F930F
:100380001F93CF93DF93EC0181E0888F9B8D8C8D41
:10039000981319C0E889F989808185FF14C09FB737
:1003A000F894EE89FF896083E889F98980818274F5
:1003B00080839FBF81E090E0DF91CF911F910F91EB
:1003C000FF90EF900895F62E0B8D10E00F5F1F4FFA
:1003D0000F731127E02E8C8D8E110BC00FB607FC0A
:1003E000FACFE889F989808185FFF5CFCE01A4DFB6
:1003F000F2CFEB8DEC0FFD2FF11DE35AFF4FF08292
:100400009FB7F8940B8FEA89FB8980818062D0CFF7
:10041000CF93DF93EC01888D8823B1F0AA89BB8943
:10042000E889F9898C9185FD03C0808186FD0CC027
:100430000FB607FCF7CF8C9185FFF2CF808185FF47
:10044000EDCFCE0179DFEACFDF91CF91089585ED31
:1004500086BF06B604FCFDCF10922D0108952091B1
:100460000901260F3327331F21323105ECF4209187
:100470002D01FC0190E080E0243069F082E00895D5
:10048000A09109012191AC0147515F4FA40FB52FF5
:10049000B11D2C930196861798F380910901680F7E
:1004A0006093090180E0089581E0089508958FEF39
:1004B0009FEF08958FEF9FEF08958091E80090E0FF
:1004C0009195819591090895CF93DF93CB01EA012E
:1004D000642FC5DFCE01DF91CF910895CF93DF93D5
:1004E0001F92CDB7DEB7698361E0CE010196B7DF19
:1004F00081E090E00F90DF91CF91089590E080E04F
:100500000895FC0101900020E9F73197AF01481BE5
:10051000590BBC0180E491E094CE8F929F92AF92F0
:10052000BF920F931F93CF93DF93CDB7DEB7A19701
:100530000FB6F894DEBF0FBECDBF19A2423008F44B
:100540004AE08E010F5D1F4F842E912CB12CA12CFF
:10055000A5019401FED5E62FB901CA01EA30ECF4F9
:10056000E05DD801EE938D01232B242B252B81F701
:1005700090E080E0109711F0CD01C3DFA1960FB697
:10058000F894DEBF0FBECDBFDF91CF911F910F91C9
:10059000BF90AF909F908F900895E95CE2CFCF938A
:1005A000DF93AFDFEC0188E790E0ABDF8C0F9D1F9E
:1005B000DF91CF9108954F925F926F927F928F92C9
:1005C0009F92AF92BF92CF92DF92EF92FF920F93E2
:1005D0001F93CF936B017C01742EAC019B011DD73F
:1005E000882391F08BE790E0CF911F910F91FF90BE
:1005F000EF90DF90CF90BF90AF909F908F907F90C3
:100600006F905F904F907DCF46015701E894B7F807
:100610002FEF3FEF4FE75FE7C501B401FED6811131
:100620000CC02FEF3FEF4FE75FE7C501B40178D46F
:1006300018161CF48FE790E0D7CF2FEF3FEF4FE76E
:100640005FE4C701B601A0D618161CF483E890E059
:10065000CBCF2FEF3FEF4FE75FECC701B60160D480
:1006600087FDF4CF20E030E0A901C701B60158D4DE
:1006700010E000E087FF09C06DE280E491E07DDEDC
:100680008C01F7FAF094F7F8F094C0E060E070E0C5
:1006900080E09FE37C1639F020E030E040E251E456
:1006A000DFD5CF5FF7CFA701960176D52B013C01AF
:1006B0003FD64B015C014AE030DF7C01E00EF11EC9
:1006C000CC2381F1C501B4012FD49B01AC01C3013E
:1006D000B20161D54B015C016EE280E491E04DDE38
:1006E000E80EF91EC150F0F020E030E040E251E4A5
:1006F000C501B4017AD42B013C011AD64B01B12CAF
:10070000A12C4AE0C501B40108DFE80EF91EC501BD
:10071000B4010AD49B01AC01C301B2013CD54B0129
:100720005C01E0CFC701CF911F910F91FF90EF9037
:10073000DF90CF90BF90AF909F908F907F906F9001
:100740005F904F9008951F920F920FB60F92112451
:100750002F933F938F939F93AF93BF9380913801D3
:1007600090913901A0913A01B0913B01309137014C
:1007700023E0230F2D3768F126E8230F0296A11DF1
:10078000B11D209337018093380190933901A093D4
:100790003A01B0933B0180913C0190913D01A091C1
:1007A0003E01B0913F010196A11DB11D80933C0116
:1007B00090933D01A0933E01B0933F01BF91AF9153
:1007C0009F918F913F912F910F900FBE0F901F908F
:1007D00018950196A11DB11DD4CF1F920F920FB68F
:1007E0000F9211242F933F934F935F936F937F93B7
:1007F0008F939F93AF93BF93EF93FF9380E491E028
:100800009BDDFF91EF91BF91AF919F918F917F9170
:100810006F915F914F913F912F910F900FBE0F906D
:100820001F9018951F920F920FB60F9211242F93BD
:100830008F939F93EF93FF93E0915001F0915101BB
:100840008081E0915601F091570182FD1BC090819B
:10085000809159018F5F8F7320915A01821741F067
:10086000E0915901F0E0E05CFE4F958F80935901D3
:10087000FF91EF919F918F912F910F900FBE0F904D
:100880001F9018958081F4CF1F920F920FB60F9290
:1008900011242F933F934F935F936F937F938F9385
:1008A0009F93AF93BF93EF93FF9381B1887F80367F
:1008B00009F449C0E8F5883209F4A0C018F5803180
:1008C00009F496C0B8F4882309F4E6C0883009F426
:1008D0008FC0FF91EF91BF91AF919F918F917F91C9
:1008E0006F915F914F913F912F910F900FBE0F909D
:1008F0001F901895883109F481C0803251F7809398
:100900002C0114C0803409F491C040F48033B9F351
:100910008833F9F680932C0185ECA1C0803509F469
:100920007CC0883509F48AC0883499F690DDD1CF2F
:10093000883909F481C030F5883729F050F48836B9
:1009400011F0803731F683E080932D0110922B0156
:1009500052C0883809F470C0803919F0803809F025
:10096000B8CF80912B01803208F066C0E0912B0156
:1009700081E08E0F80932B0183B1F0E0E55FFE4FA5
:10098000808339C0803B39F0D0F4803A09F46BC0E1
:10099000883A09F09ECF84E080932D0110920A01DD
:1009A00010920901F0E0E0E00995809109018111C0
:1009B0000FC081E0809309011092E90009C0803CDA
:1009C00009F4AACF883C09F4A7CF883B09F081CF6E
:1009D000E0910A0181E08E0F80930A01F0E0E75177
:1009E000FF4F808183B990910A018091090122C053
:1009F0008091320183B985EC86BF6BCF9091310134
:100A000080913001981718F5E091310181E08E0F47
:100A100080933101F0E08081EDCFE091310181E000
:100A20008E0F8093310183B1F0E08083909131018A
:100A3000809130019817F8F285E8DECFE09131011E
:100A400081E08E0F8093310183B1F0E0808380914B
:100A50002F0181116BCF81E080932E0184EA86BF44
:100A600010922D0136CF85EC86BF10922D0180911A
:100A70002B01803230F4E0912B01F0E0E55FFE4F76
:100A8000108260912B0170E08BE091E0F0E0E0E0FB
:100A9000099510922B011DCF10922C0147CF0F9377
:100AA0001F93CF93DF93109243011092420188EE7F
:100AB00093E0A0E0B0E08093440190934501A093BF
:100AC0004601B09347018AE690E0909341018093FC
:100AD000400180E490E090934D0180934C0129E225
:100AE00030E030934F0120934E012BE230E0309301
:100AF0005101209350012AE230E0309353012093BA
:100B0000520190935501809354018CE290E09093B0
:100B10005701809356011092590110925A01109278
:100B20005B0110925C011092030210920A02109273
:100B3000110210921202109213021092140281E01C
:100B40008093100280930D0210920E0292E0909317
:100B50000F0280930202C8E6D1E0D0930702C0934F
:100B6000060288E691E096D490930C0280930B02E3
:100B7000009709F4A0C0FC019E0111922150304061
:100B8000E1F788E790E090930502809304028DE0FE
:100B900090E0909309028093080208EB10E0C9ED01
:100BA000D0E080910302882341F161E08DE0C2DA58
:100BB000E1EAF0E08491F8019491FE01249122236E
:100BC000E1F0882359F0853009F47EC0873009F4BC
:100BD0007EC0843019F48FB58F778FBDE22FF0E09F
:100BE000EE0FFF1FEE53FF4FA591B4918FB7F8940E
:100BF0002C91909592239C938FBFFE018491E82FB6
:100C0000F0E0EE0FFF1FEE53FF4F8591949190930C
:100C1000160280931502F80184918093170260E018
:100C20008DE088DAF80104910093F401FE01C4918B
:100C3000EC2FF0E0EE0FFF1FE657FF4F85919491E8
:100C40009093F6018093F5011092FF01109201023A
:100C5000109200021092FE011092FD011092FC0110
:100C60001092FB011092FA011092F9011092F80112
:100C70001092F7011092F3011092F2011092DE012E
:100C800084EF91E09093E7018093E6011092E401F4
:100C90001092E5011092DD0189E08093E00181E08E
:100CA0008093E1018093E2018093E301DF91CF9192
:100CB0001F910F9108951092070210920602109250
:100CC00005021092040263CF8FB58F7D86CF85B564
:100CD0008F7D85BD83CFCF93DF93CDB7DEB764978C
:100CE0000FB6F894DEBF0FBECDBF789483B7836094
:100CF00083BF89B7816089BF92E09EBD8EB5816058
:100D00008EBD8FB581608FBD85B5846085BD85B58D
:100D1000806485BD87E886B91AB8E0915001F091EA
:100D200051019083E0914C01F0914D011082E091CE
:100D30004E01F0914F018FEC808310925801E091A9
:100D40005401F091550186E88083E0915201F091C1
:100D50005301808188698083E0915201F0915301B1
:100D600080818F7D808360E081E0E4D95E0185E150
:100D7000A80EB11C81E4382E90E0892E90E0992EC7
:100D80008E010F5F1F4F780137B8369A3699FECF24
:100D900084B195B1F701819391937F016AE070E08E
:100DA00080E090E01EDAAE14BF0471F7412C512CA4
:100DB0003201F801619171918F01072E000C880BAF
:100DC000990BB4D09B01AC01C301B201E5D12B0159
:100DD0003C01E016F10669F720E030E040E251E422
:100DE0003FD29B01AC0160E070EC8FE794E438D215
:100DF00020E030E040E85FE3CED120E030E44CE199
:100E000056E4F3D020E030E44CE156E429D2C5D2D8
:100E100023E333E145E953E4E8D020E030E648E756
:100E200055E4BAD19B01AC0161E872EA80E999E42A
:100E300017D223E333E948E853E4ADD16B017C01D9
:100E4000C0923301D0923401E0923501F092360124
:100E500068EB7BE080E090E0C4D920E030E048EA35
:100E600051E4C701B60190D218161CF520E030E01D
:100E700040EC51E4C701B60153D087FF1AC087E8A0
:100E800090E03FDB60913301709134018091350136
:100E90009091360142E08FDB8EE890E080DB811498
:100EA000910409F46DCF37DA882309F469CFA8D803
:100EB00067CF20E030E040EC51E4C701B60164D2D6
:100EC00087FD10C087E890E01CDB609133017091D2
:100ED0003401809135019091360142E06CDB8EEA5D
:100EE00090E0DCCF87E890E00CDB609133017091FB
:100EF0003401809135019091360142E05CDB8BEC4E
:100F000090E0CCCF80910B0290910C025FD3809146
:100F100008029091090297FD02C060E00BC9089594
:100F200040D008F481E00895E89409C097FB3EF4AE
:100F300090958095709561957F4F8F4F9F4F992326
:100F4000A9F0F92F96E9BB279395F69587957795A4
:100F50006795B795F111F8CFFAF4BB0F11F460FF64
:100F60001BC06F5F7F4F8F4F9F4F16C0882311F0BC
:100F700096E911C0772321F09EE8872F762F05C0D0
:100F8000662371F096E8862F70E060E02AF09A956B
:100F9000660F771F881FDAF7880F9695879597F960
:100FA0000895990F0008550FAA0BE0E8FEEF1616FA
:100FB0001706E807F907C0F012161306E407F5074D
:100FC00098F0621B730B840B950B39F40A2661F0C1
:100FD000232B242B252B21F408950A2609F4A14064
:100FE000A6958FEF811D811D08950BD078C069D023
:100FF00028F06ED018F0952309F05AC05FC0112474
:10100000A2C07ED0A0F3959FD1F3950F50E0551F5D
:10101000629FF001729FBB27F00DB11D639FAA274D
:10102000F00DB11DAA1F649F6627B00DA11D661F9C
:10103000829F2227B00DA11D621F739FB00DA11DBD
:10104000621F839FA00D611D221F749F3327A00D77
:10105000611D231F849F600D211D822F762F6A2F13
:1010600011249F5750408AF0E1F088234AF0EE0F98
:10107000FF1FBB1F661F771F881F91505040A9F7A5
:101080009E3F510570F014C05EC05F3FECF3983E88
:10109000DCF3869577956795B795F795E7959F5F0C
:1010A000C1F7FE2B880F911D9695879597F90895A6
:1010B00097F99F6780E870E060E008959FEF80EC0B
:1010C000089500240A9416161706180609060895AE
:1010D00000240A9412161306140605060895092E14
:1010E0000394000C11F4882352F0BB0F40F4BF2B83
:1010F00011F460FF04C06F5F7F4F8F4F9F4F0895C3
:1011000057FD9058440F551F59F05F3F71F04795B8
:10111000880F97FB991F61F09F3F79F0879508959D
:10112000121613061406551FF2CF4695F1DF08C0BC
:10113000161617061806991FF1CF869571056105D9
:1011400008940895E894BB2766277727CB0197F981
:101150000895A1E21A2EAA1BBB1BFD010DC0AA1FF8
:10116000BB1FEE1FFF1FA217B307E407F50720F010
:10117000A21BB30BE40BF50B661F771F881F991F8B
:101180001A9469F760957095809590959B01AC01D4
:10119000BD01CF0108955058BB27AA270ED09FCF7D
:1011A00090DF30F095DF20F031F49F3F11F41EF412
:1011B00085CF0EF4E095E7FB7BCFE92FA1DF80F32D
:1011C000BA17620773078407950718F071F49EF544
:1011D000B9CF0EF4E0950B2EBA2FA02D0B01B9015B
:1011E00090010C01CA01A0011124FF27591B99F09D
:1011F000593F50F4503E68F11A16F040A22F232FA9
:10120000342F4427585FF3CF469537952795A795F8
:10121000F0405395C9F77EF41F16BA0B620B730B9F
:10122000840BBAF09150A1F0FF0FBB1F661F771F10
:10123000881FC2F70EC0BA0F621F731F841F48F4C5
:10124000879577956795B795F7959E3F08F0B3CF4B
:101250009395880F08F09927EE0F97958795089535
:101260000CD03DCF35DF40F02CDF30F021F45F3F74
:1012700019F01ECF511167CF21CF42DF98F3992388
:10128000C9F35523B1F3951B550BBB27AA2762174A
:101290007307840738F09F5F5F4F220F331F441F8F
:1012A000AA1FA9F333D00E2E3AF0E0E830D09150C7
:1012B0005040E695001CCAF729D0FE2F27D0660FB4
:1012C000771F881FBB1F261737074807AB07B0E8F3
:1012D00009F0BB0B802DBF01FF2793585F4F2AF009
:1012E0009E3F510568F0E4CE2ECF5F3FECF3983E71
:1012F000DCF3869577956795B795F7959F5FC9F766
:10130000880F911D9695879597F90895E1E0660FEE
:10131000771F881FBB1F621773078407BA0720F067
:10132000621B730B840BBA0BEE1F88F7E0950895D0
:10133000EFDE88F09F5790F0B92F9927B751A0F0B2
:10134000D1F0660F771F881F991F1AF0BA95C9F759
:1013500012C0B13081F0F6DEB1E00895F3CE672F10
:10136000782F8827B85F39F0B93FCCF38695779509
:101370006795B395D9F73EF49095809570956195F2
:101380007F4F8F4F9F4F08950CDE08F48FEF089525
:101390000EF047C093CE68948BCEBADEC8F3992383
:1013A000D1F3C6F3DF93CF931F930F93FF92C92F0F
:1013B000DD2788232AF02197660F771F881FDAF729
:1013C00020E030E040E85FEB9FE3883920F0803E8A
:1013D00030F021968F77E0DEE6E2F0E003C0DCDE5D
:1013E000E3E5F0E02CD08B01BE01EC01FB2E6F5742
:1013F00071097595771F880B990B98DD28E132E705
:1014000041E35FE3FEDDAF2D9801AE01FF900F9148
:101410001F91CF91DF91D1DE62CEC3DD880B990B96
:1014200008959F3F31F0915020F487957795679507
:10143000B795880F911D9695879597F90895DF9335
:10144000CF931F930F93FF92EF92DF927B018C015A
:10145000689405C0DA2EEF01D4DDFE01E894A59171
:101460002591359145915591AEF3EF01A6DEFE0130
:101470009701A801DA9479F7DF90EF90FF900F9130
:101480001F91CF91DF910895EE0FFF1F0590F4910A
:10149000E02D09940F931F93CF93DF938230910532
:1014A00010F482E090E0E0911A02F0911B0230E02B
:1014B00020E0B0E0A0E0309799F42115310509F45F
:1014C0004AC0281B390B24303105D8F58A819B810D
:1014D0006115710589F1FB0193838283FE0111C0BF
:1014E000408151810281138148175907E0F0481764
:1014F000590799F4109761F012960C93129713966E
:101500001C933296CF01DF91CF911F910F910895D7
:1015100000931A0210931B02F4CF2115310551F0EC
:101520004217530738F0A901DB019A01BD01DF0121
:10153000F801C1CFEF01F9CF90931B0280931A02FB
:10154000CDCFFE01E20FF31F819391932250310919
:1015500039832883D7CF2091180230911902232B89
:1015600041F420916200309163003093190220937E
:10157000180220916000309161002115310541F47D
:101580002DB73EB74091640050916500241B350B88
:10159000E0911802F0911902E217F307A0F42E1B54
:1015A0003F0B2817390778F0AC014E5F5F4F2417C7
:1015B000350748F04E0F5F1F5093190240931802F1
:1015C000819391939FCFF0E0E0E09CCFCF93DF93A6
:1015D0000097E9F0FC01329713821282A0911A025F
:1015E000B0911B02ED0130E020E01097A1F42081C2
:1015F0003181820F931F2091180230911902281710
:10160000390709F061C0F0931902E0931802DF91E5
:10161000CF910895EA01CE17DF07E8F54A815B8193
:101620009E0141155105B1F7E901FB83EA83499118
:101630005991C40FD51FEC17FD0761F4808191818A
:101640000296840F951FE901998388838281938193
:101650009B838A83F0E0E0E012968D919C91139732
:101660000097B9F52D913C911197CD010296820F0B
:10167000931F20911802309119022817390739F663
:10168000309751F510921B0210921A02B093190272
:10169000A0931802BCCFD383C28340815181840FB1
:1016A000951FC817D90761F44E5F5F4F88819981F4
:1016B000480F591F518340838A819B819383828382
:1016C0002115310509F0B0CFF0931B02E0931A0207
:1016D0009ECFFD01DC01C0CF13821282D7CF10E074
:1016E000C3E7D0E003C0FE01CFDE2196C437D107A7
:0616F000D1F7F894FFCFD2
:1016F60000001C02800000000000BD0121014E0117
:1017060008027F015D0171010D0A006E616E0069BC
:101716006E66006F76660049742069732000432E5A
:1017260020416868682C2076657279206E69636549
:101736002074656D70657261747572652E00432E36
:101746002049206665656C206C696B6520612068A0
:101756006F742074616D616C652100432E204272A6
:1017660072727272722C206974277320434F4C4434
:02177600210050
:00000001FF
